{
  "transactions": [
    {
      "hash": "0x405a43a7bffb4b63b3ceb30cb05f958c10b6724d0391c38e38bfb5934cb7d680",
      "transactionType": "CALL",
      "contractName": "BaseRegistrar",
      "contractAddress": "0xae6538b36e50c98bf776626ec845e2128486b7a3",
      "function": "addController(address)",
      "arguments": [
        "0x93D6861691E658d0797a982E652Fc3015314913d"
      ],
      "transaction": {
        "from": "0xd93e82b9969cc9a016bc58f5d1d7f83918fd9c79",
        "to": "0xae6538b36e50c98bf776626ec845e2128486b7a3",
        "gas": "0xff6e",
        "value": "0x0",
        "input": "0xa7fc7a0700000000000000000000000093d6861691e658d0797a982e652fc3015314913d",
        "nonce": "0xc",
        "chainId": "0x2c"
      },
      "additionalContracts": [],
      "isFixedGasLimit": false
    },
    {
      "hash": "0xdbac6b1fdc9d292f2486cac10ef1d1195e1317d87e24f8cd45da213f8c9119ea",
      "transactionType": "CALL",
      "contractName": "ReverseRegistrar",
      "contractAddress": "0x3173c3e608125226a0069ba75f8feb73b221974a",
      "function": "setControllerApproval(address,bool)",
      "arguments": [
        "0x93D6861691E658d0797a982E652Fc3015314913d",
        "true"
      ],
      "transaction": {
        "from": "0xd93e82b9969cc9a016bc58f5d1d7f83918fd9c79",
        "to": "0x3173c3e608125226a0069ba75f8feb73b221974a",
        "gas": "0x10232",
        "value": "0x0",
        "input": "0x0f6bdf4100000000000000000000000093d6861691e658d0797a982e652fc3015314913d0000000000000000000000000000000000000000000000000000000000000001",
        "nonce": "0xd",
        "chainId": "0x2c"
      },
      "additionalContracts": [],
      "isFixedGasLimit": false
    }
  ],
  "receipts": [
    {
      "status": "0x1",
      "cumulativeGasUsed": "0xdadc",
      "logs": [
        {
          "address": "0xae6538b36e50c98bf776626ec845e2128486b7a3",
          "topics": [
            "0x0a8bb31534c0ed46f380cb867bd5c803a189ced9a764e30b3a4991a9901d7474",
            "0x00000000000000000000000093d6861691e658d0797a982e652fc3015314913d"
          ],
          "data": "0x",
          "blockHash": "0xded820462f831bc3df2f49c000393a725f426424e748a4c10f717876bad2b3c4",
          "blockNumber": "0x52fe27",
          "transactionHash": "0x405a43a7bffb4b63b3ceb30cb05f958c10b6724d0391c38e38bfb5934cb7d680",
          "transactionIndex": "0x0",
          "logIndex": "0x0",
          "removed": false
        }
      ],
      "logsBloom": "0x00000000000000000000000000000000000000000400000000000000000000000000000000000000000000000000000000000000000000000000000000000010000000000000000000000000000000000000000000000000000000000000000000000000000000000000000004000000008000000000000000000004000000200000000000000000000000000000000000000000000000000000000000080000000000000000000000000000000000000000000000000000000000000000000000000000000000000000000000000000000000000000000080000000000000000000000000000000002000000000000000000000000000000000000000000000",
      "type": "0x2",
      "transactionHash": "0x405a43a7bffb4b63b3ceb30cb05f958c10b6724d0391c38e38bfb5934cb7d680",
      "transactionIndex": "0x0",
      "blockHash": "0xded820462f831bc3df2f49c000393a725f426424e748a4c10f717876bad2b3c4",
      "blockNumber": "0x52fe27",
      "gasUsed": "0xdadc",
      "effectiveGasPrice": "0x1462c2a5b8",
      "from": "0xd93e82b9969cc9a016bc58f5d1d7f83918fd9c79",
      "to": "0xae6538b36e50c98bf776626ec845e2128486b7a3",
      "contractAddress": null
    },
    {
      "status": "0x1",
      "cumulativeGasUsed": "0x195cb",
      "logs": [
        {
          "address": "0x3173c3e608125226a0069ba75f8feb73b221974a",
          "topics": [
            "0xf9029b781a69f4a546fcd723a108cc36592b8fbdecf665d7db4275c9d1de4892",
            "0x00000000000000000000000093d6861691e658d0797a982e652fc3015314913d"
          ],
          "data": "0x0000000000000000000000000000000000000000000000000000000000000001",
          "blockHash": "0xded820462f831bc3df2f49c000393a725f426424e748a4c10f717876bad2b3c4",
          "blockNumber": "0x52fe27",
          "transactionHash": "0xdbac6b1fdc9d292f2486cac10ef1d1195e1317d87e24f8cd45da213f8c9119ea",
          "transactionIndex": "0x1",
          "logIndex": "0x1",
          "removed": false
        }
      ],
      "logsBloom": "0x00000000000000000000000000000000000000000000000000000000000000000000000000000000000000000000000000000400000000000000000000000000000000000000000000080000000000000000000000000000000000000000000000000000000000000000000004000000000000000000000000000000000000000000000000000000000000000000001000000000000000000000000000000000000000000000000000000000000000000000000000000000000000000000000000000000000000000000000000800000000000000000000080100000000200000000000000000000002000000000000000000000000000000000000000000000",
      "type": "0x2",
      "transactionHash": "0xdbac6b1fdc9d292f2486cac10ef1d1195e1317d87e24f8cd45da213f8c9119ea",
      "transactionIndex": "0x1",
      "blockHash": "0xded820462f831bc3df2f49c000393a725f426424e748a4c10f717876bad2b3c4",
      "blockNumber": "0x52fe27",
      "gasUsed": "0xbaef",
      "effectiveGasPrice": "0x1462c2a5b8",
      "from": "0xd93e82b9969cc9a016bc58f5d1d7f83918fd9c79",
      "to": "0x3173c3e608125226a0069ba75f8feb73b221974a",
      "contractAddress": null
    }
  ],
  "libraries": [],
  "pending": [],
  "returns": {},
  "timestamp": 1738040776,
  "chain": 44,
  "commit": "889722a"
}