{
  "transactions": [
    {
      "hash": "0x63f8055af373db340522991007d10abfd71232009416f2f012f9e4d4f710a177",
      "transactionType": "CALL",
      "contractName": "BaseRegistrar",
      "contractAddress": "0xafb5f12c5f379431253159fae464572999e78485",
      "function": "addController(address)",
      "arguments": [
        "0x017D8C573a54cc43e2D23EC8Fa756D92777c3217"
      ],
      "transaction": {
        "from": "0xd93e82b9969cc9a016bc58f5d1d7f83918fd9c79",
        "to": "0xafb5f12c5f379431253159fae464572999e78485",
        "gas": "0xff6e",
        "value": "0x0",
        "input": "0xa7fc7a07000000000000000000000000017d8c573a54cc43e2d23ec8fa756d92777c3217",
        "nonce": "0x23",
        "chainId": "0x2c"
      },
      "additionalContracts": [],
      "isFixedGasLimit": false
    },
    {
      "hash": "0x53a6670931c2d2d83baa54f84cfa25a052a5c45e155ec83027dd1a9d71c94772",
      "transactionType": "CALL",
      "contractName": "ReverseRegistrar",
      "contractAddress": "0xc4848453278116613f6cc1660bffad5a4ac2182e",
      "function": "setControllerApproval(address,bool)",
      "arguments": [
        "0x017D8C573a54cc43e2D23EC8Fa756D92777c3217",
        "true"
      ],
      "transaction": {
        "from": "0xd93e82b9969cc9a016bc58f5d1d7f83918fd9c79",
        "to": "0xc4848453278116613f6cc1660bffad5a4ac2182e",
        "gas": "0x10232",
        "value": "0x0",
        "input": "0x0f6bdf41000000000000000000000000017d8c573a54cc43e2d23ec8fa756d92777c32170000000000000000000000000000000000000000000000000000000000000001",
        "nonce": "0x24",
        "chainId": "0x2c"
      },
      "additionalContracts": [],
      "isFixedGasLimit": false
    }
  ],
  "receipts": [
    {
      "status": "0x1",
      "cumulativeGasUsed": "0xdadc",
      "logs": [
        {
          "address": "0xafb5f12c5f379431253159fae464572999e78485",
          "topics": [
            "0x0a8bb31534c0ed46f380cb867bd5c803a189ced9a764e30b3a4991a9901d7474",
            "0x000000000000000000000000017d8c573a54cc43e2d23ec8fa756d92777c3217"
          ],
          "data": "0x",
          "blockHash": "0x9ce5e710905fe6935b60981b1b357a2e963dbcfae9e34b4fa6b57f537681d46e",
          "blockNumber": "0x5635d8",
          "transactionHash": "0x63f8055af373db340522991007d10abfd71232009416f2f012f9e4d4f710a177",
          "transactionIndex": "0x0",
          "logIndex": "0x0",
          "removed": false
        }
      ],
      "logsBloom": "0x00000000000000000000000000000000000000000400000000000000000000000000000000000000000000000000000000000000000000008000000000000010000000000000000000000000000000000000000400000000000000000000000000000000000000000000000000000000008000000000000000000000000000000000000000000000000000800000000000000000000000000000000000000000000000000000000001080000000000200000000000000000000000000000000000000000000000000000000000000000000000000000000000000000000000000000000000000000000000000000000000000000000000000000000000000000",
      "type": "0x2",
      "transactionHash": "0x63f8055af373db340522991007d10abfd71232009416f2f012f9e4d4f710a177",
      "transactionIndex": "0x0",
      "blockHash": "0x9ce5e710905fe6935b60981b1b357a2e963dbcfae9e34b4fa6b57f537681d46e",
      "blockNumber": "0x5635d8",
      "gasUsed": "0xdadc",
      "effectiveGasPrice": "0x1462c2a5b8",
      "from": "0xd93e82b9969cc9a016bc58f5d1d7f83918fd9c79",
      "to": "0xafb5f12c5f379431253159fae464572999e78485",
      "contractAddress": null
    },
    {
      "status": "0x1",
      "cumulativeGasUsed": "0x195cb",
      "logs": [
        {
          "address": "0xc4848453278116613f6cc1660bffad5a4ac2182e",
          "topics": [
            "0xf9029b781a69f4a546fcd723a108cc36592b8fbdecf665d7db4275c9d1de4892",
            "0x000000000000000000000000017d8c573a54cc43e2d23ec8fa756d92777c3217"
          ],
          "data": "0x0000000000000000000000000000000000000000000000000000000000000001",
          "blockHash": "0x9ce5e710905fe6935b60981b1b357a2e963dbcfae9e34b4fa6b57f537681d46e",
          "blockNumber": "0x5635d8",
          "transactionHash": "0x53a6670931c2d2d83baa54f84cfa25a052a5c45e155ec83027dd1a9d71c94772",
          "transactionIndex": "0x1",
          "logIndex": "0x1",
          "removed": false
        }
      ],
      "logsBloom": "0x00000000000000000000000000000000000000000000000000000000000000000000000000000000000000000000000000000000000000008000000000000000000000000000000000080000000000000000000000000000000000000000000000000000000000000000000000000000000000000010000000000000000000000000000000000000000000800000001000000000000000000000000000000000000002000000000000000000000000200000000000000000000000000000000000000000000000000000000000800000000000000000000000000000004000000000000000000000000000000000000000000000000000000000000000000000",
      "type": "0x2",
      "transactionHash": "0x53a6670931c2d2d83baa54f84cfa25a052a5c45e155ec83027dd1a9d71c94772",
      "transactionIndex": "0x1",
      "blockHash": "0x9ce5e710905fe6935b60981b1b357a2e963dbcfae9e34b4fa6b57f537681d46e",
      "blockNumber": "0x5635d8",
      "gasUsed": "0xbaef",
      "effectiveGasPrice": "0x1462c2a5b8",
      "from": "0xd93e82b9969cc9a016bc58f5d1d7f83918fd9c79",
      "to": "0xc4848453278116613f6cc1660bffad5a4ac2182e",
      "contractAddress": null
    }
  ],
  "libraries": [],
  "pending": [],
  "returns": {},
  "timestamp": 1739350326,
  "chain": 44,
  "commit": "424ed50"
}