{
  "transactions": [
    {
      "hash": "0x82d7b7d81a539c71d9609c819c388b7f62f39f0c90708a927c05f037ad2c0015",
      "transactionType": "CALL",
      "contractName": null,
      "contractAddress": "0xd3e89bb05f63337a450711156683d533db976c85",
      "function": "setSubnodeOwner(bytes32,bytes32,address)",
      "arguments": [
        "0x0000000000000000000000000000000000000000000000000000000000000000",
        "0x4f5b812789fc606be1b3b16908db13fc7a9adf7ca72641f84d75b47069d3d7f0",
        "0x6Be02d1d3665660d22FF9624b7BE0551ee1Ac91b"
      ],
      "transaction": {
        "from": "0x6be02d1d3665660d22ff9624b7be0551ee1ac91b",
        "to": "0xd3e89bb05f63337a450711156683d533db976c85",
        "gas": "0x1182b",
        "value": "0x0",
        "input": "0x06ab592300000000000000000000000000000000000000000000000000000000000000004f5b812789fc606be1b3b16908db13fc7a9adf7ca72641f84d75b47069d3d7f00000000000000000000000006be02d1d3665660d22ff9624b7be0551ee1ac91b",
        "nonce": "0x3c",
        "chainId": "0x2bd"
      },
      "additionalContracts": [],
      "isFixedGasLimit": false
    },
    {
      "hash": "0x549fe6e3682c8daeede4bff0e0644131db9ce9201d6314e4a3bbc0fc043926e5",
      "transactionType": "CALL",
      "contractName": null,
      "contractAddress": "0xd3e89bb05f63337a450711156683d533db976c85",
      "function": "setSubnodeOwner(bytes32,bytes32,address)",
      "arguments": [
        "0x93cdeb708b7545dc668eb9280176169d1c33cfd8ed6f04690a0bcc88a93fc4ae",
        "0xae9518be8835fea86e0b47f6aba8cd48b3c6606d94ee520515f3e754849db84a",
        "0xDD95A735134e18c2CC22e4e569B1Af4eE68bd787"
      ],
      "transaction": {
        "from": "0x6be02d1d3665660d22ff9624b7be0551ee1ac91b",
        "to": "0xd3e89bb05f63337a450711156683d533db976c85",
        "gas": "0x11a5d",
        "value": "0x0",
        "input": "0x06ab592393cdeb708b7545dc668eb9280176169d1c33cfd8ed6f04690a0bcc88a93fc4aeae9518be8835fea86e0b47f6aba8cd48b3c6606d94ee520515f3e754849db84a000000000000000000000000dd95a735134e18c2cc22e4e569b1af4ee68bd787",
        "nonce": "0x3d",
        "chainId": "0x2bd"
      },
      "additionalContracts": [],
      "isFixedGasLimit": false
    }
  ],
  "receipts": [
    {
      "status": "0x1",
      "cumulativeGasUsed": "0xbf92",
      "logs": [
        {
          "address": "0xd3e89bb05f63337a450711156683d533db976c85",
          "topics": [
            "0xce0457fe73731f824cc272376169235128c118b49d344817417c6d108d155e82",
            "0x0000000000000000000000000000000000000000000000000000000000000000",
            "0x4f5b812789fc606be1b3b16908db13fc7a9adf7ca72641f84d75b47069d3d7f0"
          ],
          "data": "0x0000000000000000000000006be02d1d3665660d22ff9624b7be0551ee1ac91b",
          "blockHash": "0x50b10d2aed951cbbf1e576494ab4ec717e46c1c615df40015e0a5d93bf024192",
          "blockNumber": "0x1a07ba",
          "transactionHash": "0x82d7b7d81a539c71d9609c819c388b7f62f39f0c90708a927c05f037ad2c0015",
          "transactionIndex": "0x0",
          "logIndex": "0x0",
          "removed": false
        }
      ],
      "logsBloom": "0x00000000100000000008000000000000000000000000000000000000000000000000000000000000000000000000400000000000000010000000000000000000000000000000000000040000000000000000000000000000000000000000000000000000020000000000000000000800000000000000000000000000000000000000000000000000000002000000000000000000000000000000000000000000000000000000000000000000000000000000000000000000000000240000000000000000000000000000000000004000000000000000000000000000000020000000000000000000000000000000000000000000000000000000000000000000",
      "type": "0x2",
      "transactionHash": "0x82d7b7d81a539c71d9609c819c388b7f62f39f0c90708a927c05f037ad2c0015",
      "transactionIndex": "0x0",
      "blockHash": "0x50b10d2aed951cbbf1e576494ab4ec717e46c1c615df40015e0a5d93bf024192",
      "blockNumber": "0x1a07ba",
      "gasUsed": "0xbf92",
      "effectiveGasPrice": "0x118b677081",
      "from": "0x6be02d1d3665660d22ff9624b7be0551ee1ac91b",
      "to": "0xd3e89bb05f63337a450711156683d533db976c85",
      "contractAddress": null
    },
    {
      "status": "0x1",
      "cumulativeGasUsed": "0x180a4",
      "logs": [
        {
          "address": "0xd3e89bb05f63337a450711156683d533db976c85",
          "topics": [
            "0xce0457fe73731f824cc272376169235128c118b49d344817417c6d108d155e82",
            "0x93cdeb708b7545dc668eb9280176169d1c33cfd8ed6f04690a0bcc88a93fc4ae",
            "0xae9518be8835fea86e0b47f6aba8cd48b3c6606d94ee520515f3e754849db84a"
          ],
          "data": "0x000000000000000000000000dd95a735134e18c2cc22e4e569b1af4ee68bd787",
          "blockHash": "0x50b10d2aed951cbbf1e576494ab4ec717e46c1c615df40015e0a5d93bf024192",
          "blockNumber": "0x1a07ba",
          "transactionHash": "0x549fe6e3682c8daeede4bff0e0644131db9ce9201d6314e4a3bbc0fc043926e5",
          "transactionIndex": "0x1",
          "logIndex": "0x1",
          "removed": false
        }
      ],
      "logsBloom": "0x00000200000000000008000000100000000000000000000000000000000000000000000000000000080000000000000000000000000010000000000000000000000000000000000000040000000000000000000000000000000000000000000000000000000000000000000000000000000000000000000000000000000000000000000000000000000000000000000004200000000000000000000000000000000000000000000000800000000000000000000000000000000000240000000000000000000000000000000000004000000000000000000000000000000000000000000000000000000000000000000000000000000000000000000000000000",
      "type": "0x2",
      "transactionHash": "0x549fe6e3682c8daeede4bff0e0644131db9ce9201d6314e4a3bbc0fc043926e5",
      "transactionIndex": "0x1",
      "blockHash": "0x50b10d2aed951cbbf1e576494ab4ec717e46c1c615df40015e0a5d93bf024192",
      "blockNumber": "0x1a07ba",
      "gasUsed": "0xc112",
      "effectiveGasPrice": "0x118b677081",
      "from": "0x6be02d1d3665660d22ff9624b7be0551ee1ac91b",
      "to": "0xd3e89bb05f63337a450711156683d533db976c85",
      "contractAddress": null
    }
  ],
  "libraries": [],
  "pending": [],
  "returns": {},
  "timestamp": 1729848012,
  "chain": 701,
  "commit": "e6e46f7"
}