{
  "transactions": [
    {
      "hash": "0x9a3e84158709a0d3aec9154be0f9d76efdd19eabfa19e9822d0272b7385969bc",
      "transactionType": "CALL",
      "contractName": null,
      "contractAddress": "0xc7430d8919b54f85a723810fbcef2114482ec5d1",
      "function": "setSubnodeOwner(bytes32,bytes32,address)",
      "arguments": [
        "0x0000000000000000000000000000000000000000000000000000000000000000",
        "0x4f5b812789fc606be1b3b16908db13fc7a9adf7ca72641f84d75b47069d3d7f0",
        "0x6Be02d1d3665660d22FF9624b7BE0551ee1Ac91b"
      ],
      "transaction": {
        "from": "0x6be02d1d3665660d22ff9624b7be0551ee1ac91b",
        "to": "0xc7430d8919b54f85a723810fbcef2114482ec5d1",
        "gas": "0x1182b",
        "value": "0x0",
        "input": "0x06ab592300000000000000000000000000000000000000000000000000000000000000004f5b812789fc606be1b3b16908db13fc7a9adf7ca72641f84d75b47069d3d7f00000000000000000000000006be02d1d3665660d22ff9624b7be0551ee1ac91b",
        "nonce": "0x19",
        "chainId": "0x2bd"
      },
      "additionalContracts": [],
      "isFixedGasLimit": false
    },
    {
      "hash": "0xb5ac964e41a80aac82611e0b90688083d13efb8b423712cb1139b808c8c4a601",
      "transactionType": "CALL",
      "contractName": null,
      "contractAddress": "0xc7430d8919b54f85a723810fbcef2114482ec5d1",
      "function": "setSubnodeOwner(bytes32,bytes32,address)",
      "arguments": [
        "0x93cdeb708b7545dc668eb9280176169d1c33cfd8ed6f04690a0bcc88a93fc4ae",
        "0xae9518be8835fea86e0b47f6aba8cd48b3c6606d94ee520515f3e754849db84a",
        "0xC683516e791c5E2b8e913dE0670d499927f54CEc"
      ],
      "transaction": {
        "from": "0x6be02d1d3665660d22ff9624b7be0551ee1ac91b",
        "to": "0xc7430d8919b54f85a723810fbcef2114482ec5d1",
        "gas": "0x11a5d",
        "value": "0x0",
        "input": "0x06ab592393cdeb708b7545dc668eb9280176169d1c33cfd8ed6f04690a0bcc88a93fc4aeae9518be8835fea86e0b47f6aba8cd48b3c6606d94ee520515f3e754849db84a000000000000000000000000c683516e791c5e2b8e913de0670d499927f54cec",
        "nonce": "0x1a",
        "chainId": "0x2bd"
      },
      "additionalContracts": [],
      "isFixedGasLimit": false
    }
  ],
  "receipts": [
    {
      "status": "0x1",
      "cumulativeGasUsed": "0xbf92",
      "logs": [
        {
          "address": "0xc7430d8919b54f85a723810fbcef2114482ec5d1",
          "topics": [
            "0xce0457fe73731f824cc272376169235128c118b49d344817417c6d108d155e82",
            "0x0000000000000000000000000000000000000000000000000000000000000000",
            "0x4f5b812789fc606be1b3b16908db13fc7a9adf7ca72641f84d75b47069d3d7f0"
          ],
          "data": "0x0000000000000000000000006be02d1d3665660d22ff9624b7be0551ee1ac91b",
          "blockHash": "0x3c8bb03c5d3551ffb9be55b074097b736e1d9ea1c56b1670b6eec98fe1bd1b78",
          "blockNumber": "0x19d0a4",
          "transactionHash": "0x9a3e84158709a0d3aec9154be0f9d76efdd19eabfa19e9822d0272b7385969bc",
          "transactionIndex": "0x0",
          "logIndex": "0x0",
          "removed": false
        }
      ],
      "logsBloom": "0x00000000100000000000000000000000000000000000000000000000000000000000000000000000000010000000400000000000000010000000000000000000000000000000000000000000000000000000000000000000000000000200000000000000020000000000000000000800000000000000000000000000000000000000000000000000000002040000000000000000000000000000000000000000000000000000000000000000000000000000000000000000000000040000000000000000000000000000000000004000000000000000000000000000000020000000000000000000000000000000000000000000000000000000000000000000",
      "type": "0x2",
      "transactionHash": "0x9a3e84158709a0d3aec9154be0f9d76efdd19eabfa19e9822d0272b7385969bc",
      "transactionIndex": "0x0",
      "blockHash": "0x3c8bb03c5d3551ffb9be55b074097b736e1d9ea1c56b1670b6eec98fe1bd1b78",
      "blockNumber": "0x19d0a4",
      "gasUsed": "0xbf92",
      "effectiveGasPrice": "0x118b677081",
      "from": "0x6be02d1d3665660d22ff9624b7be0551ee1ac91b",
      "to": "0xc7430d8919b54f85a723810fbcef2114482ec5d1",
      "contractAddress": null
    },
    {
      "status": "0x1",
      "cumulativeGasUsed": "0x180a4",
      "logs": [
        {
          "address": "0xc7430d8919b54f85a723810fbcef2114482ec5d1",
          "topics": [
            "0xce0457fe73731f824cc272376169235128c118b49d344817417c6d108d155e82",
            "0x93cdeb708b7545dc668eb9280176169d1c33cfd8ed6f04690a0bcc88a93fc4ae",
            "0xae9518be8835fea86e0b47f6aba8cd48b3c6606d94ee520515f3e754849db84a"
          ],
          "data": "0x000000000000000000000000c683516e791c5e2b8e913de0670d499927f54cec",
          "blockHash": "0x3c8bb03c5d3551ffb9be55b074097b736e1d9ea1c56b1670b6eec98fe1bd1b78",
          "blockNumber": "0x19d0a4",
          "transactionHash": "0xb5ac964e41a80aac82611e0b90688083d13efb8b423712cb1139b808c8c4a601",
          "transactionIndex": "0x1",
          "logIndex": "0x1",
          "removed": false
        }
      ],
      "logsBloom": "0x00000200000000000000000000100000000000000000000000000000000000000000000000000000080010000000000000000000000010000000000000000000000000000000000000000000000000000000000000000000000000000200000000000000000000000000000000000000000000000000000000000000000000000000000000000000000000040000000004200000000000000000000000000000000000000000000000800000000000000000000000000000000000040000000000000000000000000000000000004000000000000000000000000000000000000000000000000000000000000000000000000000000000000000000000000000",
      "type": "0x2",
      "transactionHash": "0xb5ac964e41a80aac82611e0b90688083d13efb8b423712cb1139b808c8c4a601",
      "transactionIndex": "0x1",
      "blockHash": "0x3c8bb03c5d3551ffb9be55b074097b736e1d9ea1c56b1670b6eec98fe1bd1b78",
      "blockNumber": "0x19d0a4",
      "gasUsed": "0xc112",
      "effectiveGasPrice": "0x118b677081",
      "from": "0x6be02d1d3665660d22ff9624b7be0551ee1ac91b",
      "to": "0xc7430d8919b54f85a723810fbcef2114482ec5d1",
      "contractAddress": null
    }
  ],
  "libraries": [],
  "pending": [],
  "returns": {},
  "timestamp": 1729760959,
  "chain": 701,
  "commit": "4b1eb45"
}