{
  "transactions": [
    {
      "hash": "0x48d5aaa6799163255509289398c03fb45635c4cf016556d900807119ff7c2d06",
      "transactionType": "CALL",
      "contractName": null,
      "contractAddress": "0x6527ee13a001fa9a55b005ccd9e204f8a6f156b3",
      "function": "setSubnodeOwner(bytes32,bytes32,address)",
      "arguments": [
        "0x0000000000000000000000000000000000000000000000000000000000000000",
        "0x4f5b812789fc606be1b3b16908db13fc7a9adf7ca72641f84d75b47069d3d7f0",
        "0x6Be02d1d3665660d22FF9624b7BE0551ee1Ac91b"
      ],
      "transaction": {
        "from": "0x6be02d1d3665660d22ff9624b7be0551ee1ac91b",
        "to": "0x6527ee13a001fa9a55b005ccd9e204f8a6f156b3",
        "gas": "0x1182b",
        "value": "0x0",
        "input": "0x06ab592300000000000000000000000000000000000000000000000000000000000000004f5b812789fc606be1b3b16908db13fc7a9adf7ca72641f84d75b47069d3d7f00000000000000000000000006be02d1d3665660d22ff9624b7be0551ee1ac91b",
        "nonce": "0x33",
        "chainId": "0x2bd"
      },
      "additionalContracts": [],
      "isFixedGasLimit": false
    },
    {
      "hash": "0xda13843b0dff7f3330201619713cdb050552b14521d0a5d0f49b61ab88fcff9a",
      "transactionType": "CALL",
      "contractName": null,
      "contractAddress": "0x6527ee13a001fa9a55b005ccd9e204f8a6f156b3",
      "function": "setSubnodeOwner(bytes32,bytes32,address)",
      "arguments": [
        "0x93cdeb708b7545dc668eb9280176169d1c33cfd8ed6f04690a0bcc88a93fc4ae",
        "0xae9518be8835fea86e0b47f6aba8cd48b3c6606d94ee520515f3e754849db84a",
        "0x85913c7CF9F8624A7f2b2CD34149A214768233d7"
      ],
      "transaction": {
        "from": "0x6be02d1d3665660d22ff9624b7be0551ee1ac91b",
        "to": "0x6527ee13a001fa9a55b005ccd9e204f8a6f156b3",
        "gas": "0x11a5d",
        "value": "0x0",
        "input": "0x06ab592393cdeb708b7545dc668eb9280176169d1c33cfd8ed6f04690a0bcc88a93fc4aeae9518be8835fea86e0b47f6aba8cd48b3c6606d94ee520515f3e754849db84a00000000000000000000000085913c7cf9f8624a7f2b2cd34149a214768233d7",
        "nonce": "0x34",
        "chainId": "0x2bd"
      },
      "additionalContracts": [],
      "isFixedGasLimit": false
    }
  ],
  "receipts": [
    {
      "status": "0x1",
      "cumulativeGasUsed": "0xbf92",
      "logs": [
        {
          "address": "0x6527ee13a001fa9a55b005ccd9e204f8a6f156b3",
          "topics": [
            "0xce0457fe73731f824cc272376169235128c118b49d344817417c6d108d155e82",
            "0x0000000000000000000000000000000000000000000000000000000000000000",
            "0x4f5b812789fc606be1b3b16908db13fc7a9adf7ca72641f84d75b47069d3d7f0"
          ],
          "data": "0x0000000000000000000000006be02d1d3665660d22ff9624b7be0551ee1ac91b",
          "blockHash": "0xef5f6f58753aeb5110082186d2fa7e97394d48efc1c41f78c962f25c5005e768",
          "blockNumber": "0x19fe6f",
          "transactionHash": "0x48d5aaa6799163255509289398c03fb45635c4cf016556d900807119ff7c2d06",
          "transactionIndex": "0x0",
          "logIndex": "0x0",
          "removed": false
        }
      ],
      "logsBloom": "0x00000000100000000000000000000000000000000000000000000000000000000000000000000000000000000000400000000000000010000000000000000000000000000000000000000000000000000000000000000000000000000000000000000000020000000000000400000800000000000000000000000000000000000000000000000000000002200000000000000000000000000000000000000000000000000000000000000000000000000000000000000000000000040000000000000000000000000000000000004000000000000000000000000000000020000000000000000000000000000000000000000000000000000000000000004000",
      "type": "0x2",
      "transactionHash": "0x48d5aaa6799163255509289398c03fb45635c4cf016556d900807119ff7c2d06",
      "transactionIndex": "0x0",
      "blockHash": "0xef5f6f58753aeb5110082186d2fa7e97394d48efc1c41f78c962f25c5005e768",
      "blockNumber": "0x19fe6f",
      "gasUsed": "0xbf92",
      "effectiveGasPrice": "0x118b677081",
      "from": "0x6be02d1d3665660d22ff9624b7be0551ee1ac91b",
      "to": "0x6527ee13a001fa9a55b005ccd9e204f8a6f156b3",
      "contractAddress": null
    },
    {
      "status": "0x1",
      "cumulativeGasUsed": "0x180a4",
      "logs": [
        {
          "address": "0x6527ee13a001fa9a55b005ccd9e204f8a6f156b3",
          "topics": [
            "0xce0457fe73731f824cc272376169235128c118b49d344817417c6d108d155e82",
            "0x93cdeb708b7545dc668eb9280176169d1c33cfd8ed6f04690a0bcc88a93fc4ae",
            "0xae9518be8835fea86e0b47f6aba8cd48b3c6606d94ee520515f3e754849db84a"
          ],
          "data": "0x00000000000000000000000085913c7cf9f8624a7f2b2cd34149a214768233d7",
          "blockHash": "0xef5f6f58753aeb5110082186d2fa7e97394d48efc1c41f78c962f25c5005e768",
          "blockNumber": "0x19fe6f",
          "transactionHash": "0xda13843b0dff7f3330201619713cdb050552b14521d0a5d0f49b61ab88fcff9a",
          "transactionIndex": "0x1",
          "logIndex": "0x1",
          "removed": false
        }
      ],
      "logsBloom": "0x00000200000000000000000000100000000000000000000000000000000000000000000000000000080000000000000000000000000010000000000000000000000000000000000000000000000000000000000000000000000000000000000000000000000000000000000400000000000000000000000000000000000000000000000000000000000000200000000004200000000000000000000000000000000000000000000000800000000000000000000000000000000000040000000000000000000000000000000000004000000000000000000000000000000000000000000000000000000000000000000000000000000000000000000000004000",
      "type": "0x2",
      "transactionHash": "0xda13843b0dff7f3330201619713cdb050552b14521d0a5d0f49b61ab88fcff9a",
      "transactionIndex": "0x1",
      "blockHash": "0xef5f6f58753aeb5110082186d2fa7e97394d48efc1c41f78c962f25c5005e768",
      "blockNumber": "0x19fe6f",
      "gasUsed": "0xc112",
      "effectiveGasPrice": "0x118b677081",
      "from": "0x6be02d1d3665660d22ff9624b7be0551ee1ac91b",
      "to": "0x6527ee13a001fa9a55b005ccd9e204f8a6f156b3",
      "contractAddress": null
    }
  ],
  "libraries": [],
  "pending": [],
  "returns": {},
  "timestamp": 1729833402,
  "chain": 701,
  "commit": "e6e46f7"
}