{
  "transactions": [
    {
      "hash": "0x7edf948b1da2674ba02c90c74140ef03031f1fae5cc1ee26800793bab27e541b",
      "transactionType": "CREATE",
      "contractName": "ReverseRegistrar.0.8.23",
      "contractAddress": "0x315f0c8877881c880d0675e84d915d23e0538502",
      "function": null,
      "arguments": [
        "0xd3E89BB05F63337a450711156683d533db976C85",
        "0x6Be02d1d3665660d22FF9624b7BE0551ee1Ac91b",
        "0x32347c1de91cbc71535aee17456bbe8987cc116a2782950e2697c6fc411ba53f"
      ],
      "transaction": {
        "from": "0x6be02d1d3665660d22ff9624b7be0551ee1ac91b",
        "gas": "0x1122ff",
        "value": "0x0",
        "input": "0x60c060405234801561001057600080fd5b50604051610f6b380380610f6b83398101604081905261002f916100a1565b6100388261004f565b6001600160a01b039092166080525060a0526100e4565b6001600160a01b0316638b78c6d8198190558060007f8be0079c531659141344cd1fd0a4f28419497f9722a3daafe3b4186f6b6457e08180a35b50565b6001600160a01b038116811461008957600080fd5b6000806000606084860312156100b657600080fd5b83516100c18161008c565b60208501519093506100d28161008c565b80925050604084015190509250925092565b60805160a051610e3161013a6000396000818161027d015281816106010152818161068b015281816107d101526108a20152600081816101f80152818161053e015281816106d701526108d00152610e316000f3fe6080604052600436106101145760003560e01c8063828eab0e116100a0578063c66485b211610064578063c66485b2146102df578063da8c229e146102ff578063f04e283e1461033f578063f2fde38b14610352578063fee81cf41461036557600080fd5b8063828eab0e146102325780638da5cb5b146102525780639a4bd5ef1461026b578063bffbe61c1461029f578063c47f0027146102bf57600080fd5b806354d1f13d116100e757806354d1f13d146101965780636f0b64491461019e578063715018a6146101be5780637a806d6b146101c65780637b103999146101e657600080fd5b80630f5a5466146101195780630f6bdf411461014c5780631e83409a1461016e578063256929621461018e575b600080fd5b34801561012557600080fd5b50610139610134366004610b38565b610398565b6040519081526020015b60405180910390f35b34801561015857600080fd5b5061016c610167366004610b7f565b6103ac565b005b34801561017a57600080fd5b50610139610189366004610bad565b610438565b61016c61045a565b61016c6104aa565b3480156101aa57600080fd5b506101396101b9366004610bca565b6104e6565b61016c61073e565b3480156101d257600080fd5b506101396101e1366004610cb8565b610752565b3480156101f257600080fd5b5061021a7f000000000000000000000000000000000000000000000000000000000000000081565b6040516001600160a01b039091168152602001610143565b34801561023e57600080fd5b5060015461021a906001600160a01b031681565b34801561025e57600080fd5b50638b78c6d8195461021a565b34801561027757600080fd5b506101397f000000000000000000000000000000000000000000000000000000000000000081565b3480156102ab57600080fd5b506101396102ba366004610bad565b6107cd565b3480156102cb57600080fd5b506101396102da366004610d2d565b610828565b3480156102eb57600080fd5b5061016c6102fa366004610bad565b610845565b34801561030b57600080fd5b5061032f61031a366004610bad565b60006020819052908152604090205460ff1681565b6040519015158152602001610143565b61016c61034d366004610bad565b610969565b61016c610360366004610bad565b6109a9565b34801561037157600080fd5b50610139610380366004610bad565b63389a75e1600c908152600091909152602090205490565b60006103a53384846104e6565b9392505050565b6103b46109d0565b6001600160a01b0382166103db5760405163ddbadd5f60e01b815260040160405180910390fd5b6001600160a01b03821660008181526020818152604091829020805460ff191685151590811790915591519182527ff9029b781a69f4a546fcd723a108cc36592b8fbdecf665d7db4275c9d1de4892910160405180910390a25050565b60015460009061045490339084906001600160a01b03166104e6565b92915050565b60006202a30067ffffffffffffffff164201905063389a75e1600c5233600052806020600c2055337fdbf36a107da19e49527a7176a1babf963b4b0ff8cde35ee35d6cd8f1f9ac7e1d600080a250565b63389a75e1600c523360005260006020600c2055337ffa7b8eab7da67f412cc9575ed43464468f9bfbae89d1675917346ca6d8fe3c92600080a2565b6000836001600160a01b038116331480159061051257503360009081526020819052604090205460ff16155b80156105ab575060405163e985e9c560e01b81526001600160a01b0382811660048301523360248301527f0000000000000000000000000000000000000000000000000000000000000000169063e985e9c590604401602060405180830381865afa158015610585573d6000803e3d6000fd5b505050506040513d601f19601f820116820180604052508101906105a99190610d6a565b155b80156105bd57506105bb816109eb565b155b156105f05760405163c55ddc9760e01b81526001600160a01b038216600482015233602482015260440160405180910390fd5b60006105fb86610a7e565b604080517f0000000000000000000000000000000000000000000000000000000000000000602080830191909152818301849052825180830384018152606090920192839052815191012091925081906001600160a01b038916907f94a5ce4d9c1b6f48709de92cd4f882a72e6c496245ed1f72edbfcce4a46f0b3790600090a36040516305ef2c7f60e41b81527f00000000000000000000000000000000000000000000000000000000000000006004820152602481018390526001600160a01b0387811660448301528681166064830152600060848301527f00000000000000000000000000000000000000000000000000000000000000001690635ef2c7f09060a401600060405180830381600087803b15801561071b57600080fd5b505af115801561072f573d6000803e3d6000fd5b50929998505050505050505050565b6107466109d0565b6107506000610ae5565b565b6000806107608686866104e6565b604051637737221360e01b81529091506001600160a01b038516906377372213906107919084908790600401610d87565b600060405180830381600087803b1580156107ab57600080fd5b505af11580156107bf573d6000803e3d6000fd5b509298975050505050505050565b60007f00000000000000000000000000000000000000000000000000000000000000006107f983610a7e565b604080516020810193909352820152606001604051602081830303815290604052805190602001209050919050565b60015460009061045490339081906001600160a01b031685610752565b61084d6109d0565b6001600160a01b0381166108745760405163ddbadd5f60e01b815260040160405180910390fd5b600180546001600160a01b0319166001600160a01b03838116918217909255604051630c4b7b8560e11b81527f0000000000000000000000000000000000000000000000000000000000000000600482015260248101919091527f000000000000000000000000000000000000000000000000000000000000000090911690631896f70a90604401600060405180830381600087803b15801561091657600080fd5b505af115801561092a573d6000803e3d6000fd5b50506001546040516001600160a01b0390911692507feae17a84d9eb83d8c8eb317f9e7d64857bc363fa51674d996c023f4340c577cf9150600090a250565b6109716109d0565b63389a75e1600c52806000526020600c20805442111561099957636f5e88186000526004601cfd5b600090556109a681610ae5565b50565b6109b16109d0565b8060601b6109c757637448fbae6000526004601cfd5b6109a681610ae5565b638b78c6d819543314610750576382b429006000526004601cfd5b6000816001600160a01b03163b600003610a0757506000919050565b816001600160a01b0316638da5cb5b6040518163ffffffff1660e01b8152600401602060405180830381865afa925050508015610a61575060408051601f3d908101601f19168201909252610a5e91810190610dde565b60015b610a6d57506000919050565b6001600160a01b0316331492915050565b600060285b8015610ad957600019016f181899199a1a9b1b9c1cb0b131b232b360811b600f84161a815360049290921c91600019016f181899199a1a9b1b9c1cb0b131b232b360811b600f84161a81538260041c9250610a83565b50506028600020919050565b638b78c6d81980546001600160a01b039092169182907f8be0079c531659141344cd1fd0a4f28419497f9722a3daafe3b4186f6b6457e0600080a355565b6001600160a01b03811681146109a657600080fd5b60008060408385031215610b4b57600080fd5b8235610b5681610b23565b91506020830135610b6681610b23565b809150509250929050565b80151581146109a657600080fd5b60008060408385031215610b9257600080fd5b8235610b9d81610b23565b91506020830135610b6681610b71565b600060208284031215610bbf57600080fd5b81356103a581610b23565b600080600060608486031215610bdf57600080fd5b8335610bea81610b23565b92506020840135610bfa81610b23565b91506040840135610c0a81610b23565b809150509250925092565b634e487b7160e01b600052604160045260246000fd5b600082601f830112610c3c57600080fd5b813567ffffffffffffffff80821115610c5757610c57610c15565b604051601f8301601f19908116603f01168101908282118183101715610c7f57610c7f610c15565b81604052838152866020858801011115610c9857600080fd5b836020870160208301376000602085830101528094505050505092915050565b60008060008060808587031215610cce57600080fd5b8435610cd981610b23565b93506020850135610ce981610b23565b92506040850135610cf981610b23565b9150606085013567ffffffffffffffff811115610d1557600080fd5b610d2187828801610c2b565b91505092959194509250565b600060208284031215610d3f57600080fd5b813567ffffffffffffffff811115610d5657600080fd5b610d6284828501610c2b565b949350505050565b600060208284031215610d7c57600080fd5b81516103a581610b71565b8281526000602060406020840152835180604085015260005b81811015610dbc57858101830151858201606001528201610da0565b506000606082860101526060601f19601f830116850101925050509392505050565b600060208284031215610df057600080fd5b81516103a581610b2356fea2646970667358221220741ea00173eafaee50bfd9ea37459a22adf99020854789665115915abc35397b64736f6c63430008170033000000000000000000000000d3e89bb05f63337a450711156683d533db976c850000000000000000000000006be02d1d3665660d22ff9624b7be0551ee1ac91b32347c1de91cbc71535aee17456bbe8987cc116a2782950e2697c6fc411ba53f",
        "nonce": "0x39",
        "chainId": "0x2bd"
      },
      "additionalContracts": [],
      "isFixedGasLimit": false
    },
    {
      "hash": "0x55d368640a7b8ce962845294fcfe1f97fa5769b528085ba21f3aa054707f2cfe",
      "transactionType": "CALL",
      "contractName": null,
      "contractAddress": "0xd3e89bb05f63337a450711156683d533db976c85",
      "function": "setSubnodeOwner(bytes32,bytes32,address)",
      "arguments": [
        "0x0000000000000000000000000000000000000000000000000000000000000000",
        "0xdec08c9dbbdd0890e300eb5062089b2d4b1c40e3673bbccb5423f7b37dcf9a9c",
        "0x6Be02d1d3665660d22FF9624b7BE0551ee1Ac91b"
      ],
      "transaction": {
        "from": "0x6be02d1d3665660d22ff9624b7be0551ee1ac91b",
        "to": "0xd3e89bb05f63337a450711156683d533db976c85",
        "gas": "0x1088a",
        "value": "0x0",
        "input": "0x06ab59230000000000000000000000000000000000000000000000000000000000000000dec08c9dbbdd0890e300eb5062089b2d4b1c40e3673bbccb5423f7b37dcf9a9c0000000000000000000000006be02d1d3665660d22ff9624b7be0551ee1ac91b",
        "nonce": "0x3a",
        "chainId": "0x2bd"
      },
      "additionalContracts": [],
      "isFixedGasLimit": false
    },
    {
      "hash": "0xc8d6e8e0cd30c42d63b9f56ed93743acef5ed19b603edf99ed4fda2df9c379e5",
      "transactionType": "CALL",
      "contractName": null,
      "contractAddress": "0xd3e89bb05f63337a450711156683d533db976c85",
      "function": "setSubnodeOwner(bytes32,bytes32,address)",
      "arguments": [
        "0xa097f6721ce401e757d1223a763fef49b8b5f90bb18567ddb86fd205dff71d34",
        "0x3bfbbae079b9b2d16ec079f04ceae814bac65520317d74268f2474c1d37a4ecb",
        "0x315F0C8877881c880d0675E84d915D23E0538502"
      ],
      "transaction": {
        "from": "0x6be02d1d3665660d22ff9624b7be0551ee1ac91b",
        "to": "0xd3e89bb05f63337a450711156683d533db976c85",
        "gas": "0x11a5d",
        "value": "0x0",
        "input": "0x06ab5923a097f6721ce401e757d1223a763fef49b8b5f90bb18567ddb86fd205dff71d343bfbbae079b9b2d16ec079f04ceae814bac65520317d74268f2474c1d37a4ecb000000000000000000000000315f0c8877881c880d0675e84d915d23e0538502",
        "nonce": "0x3b",
        "chainId": "0x2bd"
      },
      "additionalContracts": [],
      "isFixedGasLimit": false
    }
  ],
  "receipts": [
    {
      "status": "0x1",
      "cumulativeGasUsed": "0xd2f9b",
      "logs": [
        {
          "address": "0x315f0c8877881c880d0675e84d915d23e0538502",
          "topics": [
            "0x8be0079c531659141344cd1fd0a4f28419497f9722a3daafe3b4186f6b6457e0",
            "0x0000000000000000000000000000000000000000000000000000000000000000",
            "0x0000000000000000000000006be02d1d3665660d22ff9624b7be0551ee1ac91b"
          ],
          "data": "0x",
          "blockHash": "0xa2cd09e7c48eff80ed16e41cc880fa6c090c300c5e2173f2eeb7b12017e9d897",
          "blockNumber": "0x1a07aa",
          "transactionHash": "0x7edf948b1da2674ba02c90c74140ef03031f1fae5cc1ee26800793bab27e541b",
          "transactionIndex": "0x0",
          "logIndex": "0x0",
          "removed": false
        }
      ],
      "logsBloom": "0x00000000000000000000000000000000000001000000000000800000000000000000000000000000000000000000000000000000000000000000000000000020000000000000000000000000000000000001800000000000000000000000000000000000020000000000000000000800000000000000000000000000000000400000000000000000000000000000000000000000000000000000000000000000000000000000000000000000000000000000000000000000000000800000000000000000000000000000000000000000000000000000000000000000400020000000000000000000000000000004000000000000000000000000000000000000",
      "type": "0x2",
      "transactionHash": "0x7edf948b1da2674ba02c90c74140ef03031f1fae5cc1ee26800793bab27e541b",
      "transactionIndex": "0x0",
      "blockHash": "0xa2cd09e7c48eff80ed16e41cc880fa6c090c300c5e2173f2eeb7b12017e9d897",
      "blockNumber": "0x1a07aa",
      "gasUsed": "0xd2f9b",
      "effectiveGasPrice": "0x118b677081",
      "from": "0x6be02d1d3665660d22ff9624b7be0551ee1ac91b",
      "to": null,
      "contractAddress": "0x315f0c8877881c880d0675e84d915d23e0538502"
    },
    {
      "status": "0x1",
      "cumulativeGasUsed": "0xdef21",
      "logs": [
        {
          "address": "0xd3e89bb05f63337a450711156683d533db976c85",
          "topics": [
            "0xce0457fe73731f824cc272376169235128c118b49d344817417c6d108d155e82",
            "0x0000000000000000000000000000000000000000000000000000000000000000",
            "0xdec08c9dbbdd0890e300eb5062089b2d4b1c40e3673bbccb5423f7b37dcf9a9c"
          ],
          "data": "0x0000000000000000000000006be02d1d3665660d22ff9624b7be0551ee1ac91b",
          "blockHash": "0xa2cd09e7c48eff80ed16e41cc880fa6c090c300c5e2173f2eeb7b12017e9d897",
          "blockNumber": "0x1a07aa",
          "transactionHash": "0x55d368640a7b8ce962845294fcfe1f97fa5769b528085ba21f3aa054707f2cfe",
          "transactionIndex": "0x1",
          "logIndex": "0x1",
          "removed": false
        }
      ],
      "logsBloom": "0x00000000000000000008000000000000000000000000000000000000000000400000000000000000000000000000000000000000000010000000000000000000000000000000000000040000000000000000000000000000000000000000000000000000020000000000000000000800000000000000000000000000000000000000000000000002000000000000000000000000000000000000000000000000000000000000000000000000000000000000000000000000000000240000000000000000000000000000000000004000000000000000000000000000000020000000000000000000000000000000000000000000000000000000000000000400",
      "type": "0x2",
      "transactionHash": "0x55d368640a7b8ce962845294fcfe1f97fa5769b528085ba21f3aa054707f2cfe",
      "transactionIndex": "0x1",
      "blockHash": "0xa2cd09e7c48eff80ed16e41cc880fa6c090c300c5e2173f2eeb7b12017e9d897",
      "blockNumber": "0x1a07aa",
      "gasUsed": "0xbf86",
      "effectiveGasPrice": "0x118b677081",
      "from": "0x6be02d1d3665660d22ff9624b7be0551ee1ac91b",
      "to": "0xd3e89bb05f63337a450711156683d533db976c85",
      "contractAddress": null
    },
    {
      "status": "0x1",
      "cumulativeGasUsed": "0xeb033",
      "logs": [
        {
          "address": "0xd3e89bb05f63337a450711156683d533db976c85",
          "topics": [
            "0xce0457fe73731f824cc272376169235128c118b49d344817417c6d108d155e82",
            "0xa097f6721ce401e757d1223a763fef49b8b5f90bb18567ddb86fd205dff71d34",
            "0x3bfbbae079b9b2d16ec079f04ceae814bac65520317d74268f2474c1d37a4ecb"
          ],
          "data": "0x000000000000000000000000315f0c8877881c880d0675e84d915d23e0538502",
          "blockHash": "0xa2cd09e7c48eff80ed16e41cc880fa6c090c300c5e2173f2eeb7b12017e9d897",
          "blockNumber": "0x1a07aa",
          "transactionHash": "0xc8d6e8e0cd30c42d63b9f56ed93743acef5ed19b603edf99ed4fda2df9c379e5",
          "transactionIndex": "0x2",
          "logIndex": "0x2",
          "removed": false
        }
      ],
      "logsBloom": "0x00000000000000000008000000000000000000000000000000000000000000000000000000000000002000000000000000000000000010000000000000000000000000000000000000040000000000000000000000000000000000000000000000000000000000000000000000000000000000000000000008000000000000000000000000000000000000000000000000000000000000000000000000000800000000000000000000000000000000000000000000000000000000240000000000000000000000000000000000004000001000000000000000000000000000000000000000000040000000000000000000000000000000000000000010000000",
      "type": "0x2",
      "transactionHash": "0xc8d6e8e0cd30c42d63b9f56ed93743acef5ed19b603edf99ed4fda2df9c379e5",
      "transactionIndex": "0x2",
      "blockHash": "0xa2cd09e7c48eff80ed16e41cc880fa6c090c300c5e2173f2eeb7b12017e9d897",
      "blockNumber": "0x1a07aa",
      "gasUsed": "0xc112",
      "effectiveGasPrice": "0x118b677081",
      "from": "0x6be02d1d3665660d22ff9624b7be0551ee1ac91b",
      "to": "0xd3e89bb05f63337a450711156683d533db976c85",
      "contractAddress": null
    }
  ],
  "libraries": [],
  "pending": [],
  "returns": {},
  "timestamp": 1729847939,
  "chain": 701,
  "commit": "e6e46f7"
}