{
  "transactions": [
    {
      "hash": "0x2e73dcdf31e3034b7fbf139fc2ad611a7323c7b4ff003c33b546f9c23769a824",
      "transactionType": "CALL",
      "contractName": "RegistrarController",
      "contractAddress": "0x017d8c573a54cc43e2d23ec8fa756d92777c3217",
      "function": "register((string,address,uint256,address,bytes[],bool))",
      "arguments": [
        "(steve, 0xB18e4C959bccc8EF86D78DC297fb5efA99550d85, 31536000, 0x4b74a4a9b88eF4cE5F9BB42e28e358974251BE63, [0xd5fa2b00c685d7351aad0cec02c10d65fa61f30db721e203d8c1d5eb51c61bc6b2a6bed0000000000000000000000000b18e4c959bccc8ef86d78dc297fb5efa99550d85, 0x10f13a8cc685d7351aad0cec02c10d65fa61f30db721e203d8c1d5eb51c61bc6b2a6bed0000000000000000000000000000000000000000000000000000000000000006000000000000000000000000000000000000000000000000000000000000000a00000000000000000000000000000000000000000000000000000000000000007616d69636f6f6c0000000000000000000000000000000000000000000000000000000000000000000000000000000000000000000000000000000000000000037965730000000000000000000000000000000000000000000000000000000000], true)"
      ],
      "transaction": {
        "from": "0xd93e82b9969cc9a016bc58f5d1d7f83918fd9c79",
        "to": "0x017d8c573a54cc43e2d23ec8fa756d92777c3217",
        "gas": "0x76776",
        "value": "0x38caa5763a100",
        "input": "0xc7c79676000000000000000000000000000000000000000000000000000000000000002000000000000000000000000000000000000000000000000000000000000000c0000000000000000000000000b18e4c959bccc8ef86d78dc297fb5efa99550d850000000000000000000000000000000000000000000000000000000001e133800000000000000000000000004b74a4a9b88ef4ce5f9bb42e28e358974251be6300000000000000000000000000000000000000000000000000000000000001000000000000000000000000000000000000000000000000000000000000000001000000000000000000000000000000000000000000000000000000000000000573746576650000000000000000000000000000000000000000000000000000000000000000000000000000000000000000000000000000000000000000000002000000000000000000000000000000000000000000000000000000000000004000000000000000000000000000000000000000000000000000000000000000c00000000000000000000000000000000000000000000000000000000000000044d5fa2b00c685d7351aad0cec02c10d65fa61f30db721e203d8c1d5eb51c61bc6b2a6bed0000000000000000000000000b18e4c959bccc8ef86d78dc297fb5efa99550d850000000000000000000000000000000000000000000000000000000000000000000000000000000000000000000000000000000000000000000000e410f13a8cc685d7351aad0cec02c10d65fa61f30db721e203d8c1d5eb51c61bc6b2a6bed0000000000000000000000000000000000000000000000000000000000000006000000000000000000000000000000000000000000000000000000000000000a00000000000000000000000000000000000000000000000000000000000000007616d69636f6f6c000000000000000000000000000000000000000000000000000000000000000000000000000000000000000000000000000000000000000003796573000000000000000000000000000000000000000000000000000000000000000000000000000000000000000000000000000000000000000000",
        "nonce": "0x27",
        "chainId": "0x2c"
      },
      "additionalContracts": [],
      "isFixedGasLimit": false
    }
  ],
  "receipts": [
    {
      "status": "0x1",
      "cumulativeGasUsed": "0x55c48",
      "logs": [
        {
          "address": "0x017d8c573a54cc43e2d23ec8fa756d92777c3217",
          "topics": [
            "0xbc769889246686134856b409155bb87630ea5797a705fa98b61f576d316aab9b",
            "0x000000000000000000000000d93e82b9969cc9a016bc58f5d1d7f83918fd9c79"
          ],
          "data": "0x00000000000000000000000000000000000000000000000000038caa5763a100",
          "blockHash": "0x4d87040d96542e5460c4c44da9ae4072f0911c698113a9fcefb8fc56e950829a",
          "blockNumber": "0x563618",
          "transactionHash": "0x2e73dcdf31e3034b7fbf139fc2ad611a7323c7b4ff003c33b546f9c23769a824",
          "transactionIndex": "0x0",
          "logIndex": "0x0",
          "removed": false
        },
        {
          "address": "0xafb5f12c5f379431253159fae464572999e78485",
          "topics": [
            "0xddf252ad1be2c89b69c2b068fc378daa952ba7f163c4a11628f55a4df523b3ef",
            "0x0000000000000000000000000000000000000000000000000000000000000000",
            "0x000000000000000000000000b18e4c959bccc8ef86d78dc297fb5efa99550d85",
            "0x05611ac011f4c8af2adf5f5b850fe4359224029d343b8627d112910fc1943e18"
          ],
          "data": "0x",
          "blockHash": "0x4d87040d96542e5460c4c44da9ae4072f0911c698113a9fcefb8fc56e950829a",
          "blockNumber": "0x563618",
          "transactionHash": "0x2e73dcdf31e3034b7fbf139fc2ad611a7323c7b4ff003c33b546f9c23769a824",
          "transactionIndex": "0x0",
          "logIndex": "0x1",
          "removed": false
        },
        {
          "address": "0xbe695ad687677b939cee5daf1b63f140698ea1e8",
          "topics": [
            "0xce0457fe73731f824cc272376169235128c118b49d344817417c6d108d155e82",
            "0xa00b30653aa21de4caea57dc656dcab595a7f3a936e0564ffc5dd8448b945581",
            "0x05611ac011f4c8af2adf5f5b850fe4359224029d343b8627d112910fc1943e18"
          ],
          "data": "0x000000000000000000000000b18e4c959bccc8ef86d78dc297fb5efa99550d85",
          "blockHash": "0x4d87040d96542e5460c4c44da9ae4072f0911c698113a9fcefb8fc56e950829a",
          "blockNumber": "0x563618",
          "transactionHash": "0x2e73dcdf31e3034b7fbf139fc2ad611a7323c7b4ff003c33b546f9c23769a824",
          "transactionIndex": "0x0",
          "logIndex": "0x2",
          "removed": false
        },
        {
          "address": "0xbe695ad687677b939cee5daf1b63f140698ea1e8",
          "topics": [
            "0x335721b01866dc23fbee8b6b2c7b1e14d6f05c28cd35a2c934239f94095602a0",
            "0xc685d7351aad0cec02c10d65fa61f30db721e203d8c1d5eb51c61bc6b2a6bed0"
          ],
          "data": "0x0000000000000000000000004b74a4a9b88ef4ce5f9bb42e28e358974251be63",
          "blockHash": "0x4d87040d96542e5460c4c44da9ae4072f0911c698113a9fcefb8fc56e950829a",
          "blockNumber": "0x563618",
          "transactionHash": "0x2e73dcdf31e3034b7fbf139fc2ad611a7323c7b4ff003c33b546f9c23769a824",
          "transactionIndex": "0x0",
          "logIndex": "0x3",
          "removed": false
        },
        {
          "address": "0xafb5f12c5f379431253159fae464572999e78485",
          "topics": [
            "0xfd724d251af149ea2929b9061ddab2bb31e2d87778cc0acfa1d68add62e222e8",
            "0x05611ac011f4c8af2adf5f5b850fe4359224029d343b8627d112910fc1943e18",
            "0x000000000000000000000000b18e4c959bccc8ef86d78dc297fb5efa99550d85"
          ],
          "data": "0x00000000000000000000000000000000000000000000000000000000698d96300000000000000000000000004b74a4a9b88ef4ce5f9bb42e28e358974251be630000000000000000000000000000000000000000000000000000000000000000",
          "blockHash": "0x4d87040d96542e5460c4c44da9ae4072f0911c698113a9fcefb8fc56e950829a",
          "blockNumber": "0x563618",
          "transactionHash": "0x2e73dcdf31e3034b7fbf139fc2ad611a7323c7b4ff003c33b546f9c23769a824",
          "transactionIndex": "0x0",
          "logIndex": "0x4",
          "removed": false
        },
        {
          "address": "0x4b74a4a9b88ef4ce5f9bb42e28e358974251be63",
          "topics": [
            "0x65412581168e88a1e60c6459d7f44ae83ad0832e670826c05a4e2476b57af752",
            "0xc685d7351aad0cec02c10d65fa61f30db721e203d8c1d5eb51c61bc6b2a6bed0"
          ],
          "data": "0x000000000000000000000000000000000000000000000000000000000000003c00000000000000000000000000000000000000000000000000000000000000400000000000000000000000000000000000000000000000000000000000000014b18e4c959bccc8ef86d78dc297fb5efa99550d85000000000000000000000000",
          "blockHash": "0x4d87040d96542e5460c4c44da9ae4072f0911c698113a9fcefb8fc56e950829a",
          "blockNumber": "0x563618",
          "transactionHash": "0x2e73dcdf31e3034b7fbf139fc2ad611a7323c7b4ff003c33b546f9c23769a824",
          "transactionIndex": "0x0",
          "logIndex": "0x5",
          "removed": false
        },
        {
          "address": "0x4b74a4a9b88ef4ce5f9bb42e28e358974251be63",
          "topics": [
            "0x52d7d861f09ab3d26239d492e8968629f95e9e318cf0b73bfddc441522a15fd2",
            "0xc685d7351aad0cec02c10d65fa61f30db721e203d8c1d5eb51c61bc6b2a6bed0"
          ],
          "data": "0x000000000000000000000000b18e4c959bccc8ef86d78dc297fb5efa99550d85",
          "blockHash": "0x4d87040d96542e5460c4c44da9ae4072f0911c698113a9fcefb8fc56e950829a",
          "blockNumber": "0x563618",
          "transactionHash": "0x2e73dcdf31e3034b7fbf139fc2ad611a7323c7b4ff003c33b546f9c23769a824",
          "transactionIndex": "0x0",
          "logIndex": "0x6",
          "removed": false
        },
        {
          "address": "0x4b74a4a9b88ef4ce5f9bb42e28e358974251be63",
          "topics": [
            "0x448bc014f1536726cf8d54ff3d6481ed3cbc683c2591ca204274009afa09b1a1",
            "0xc685d7351aad0cec02c10d65fa61f30db721e203d8c1d5eb51c61bc6b2a6bed0",
            "0x62e13624df7b7b9f7047f38778ac4edf3d238dedb540fdbe5b8528dc0b757fa0"
          ],
          "data": "0x000000000000000000000000000000000000000000000000000000000000004000000000000000000000000000000000000000000000000000000000000000800000000000000000000000000000000000000000000000000000000000000007616d69636f6f6c0000000000000000000000000000000000000000000000000000000000000000000000000000000000000000000000000000000000000000037965730000000000000000000000000000000000000000000000000000000000",
          "blockHash": "0x4d87040d96542e5460c4c44da9ae4072f0911c698113a9fcefb8fc56e950829a",
          "blockNumber": "0x563618",
          "transactionHash": "0x2e73dcdf31e3034b7fbf139fc2ad611a7323c7b4ff003c33b546f9c23769a824",
          "transactionIndex": "0x0",
          "logIndex": "0x7",
          "removed": false
        },
        {
          "address": "0xc4848453278116613f6cc1660bffad5a4ac2182e",
          "topics": [
            "0x94a5ce4d9c1b6f48709de92cd4f882a72e6c496245ed1f72edbfcce4a46f0b37",
            "0x000000000000000000000000d93e82b9969cc9a016bc58f5d1d7f83918fd9c79",
            "0x07e8865e9eefb7fdba6e2c2553409e44962ec437276a808e53ed8c4c386dcf35"
          ],
          "data": "0x",
          "blockHash": "0x4d87040d96542e5460c4c44da9ae4072f0911c698113a9fcefb8fc56e950829a",
          "blockNumber": "0x563618",
          "transactionHash": "0x2e73dcdf31e3034b7fbf139fc2ad611a7323c7b4ff003c33b546f9c23769a824",
          "transactionIndex": "0x0",
          "logIndex": "0x8",
          "removed": false
        },
        {
          "address": "0xbe695ad687677b939cee5daf1b63f140698ea1e8",
          "topics": [
            "0xce0457fe73731f824cc272376169235128c118b49d344817417c6d108d155e82",
            "0x8b4150cc3554db98a2f60cb8c5a4cc48659d17a536ff9fe540be66d3307ee7a7",
            "0xd23c4476f628c4255fe64535e5bd40065e15de463a83646e9ddb6b95d62f43d2"
          ],
          "data": "0x000000000000000000000000d93e82b9969cc9a016bc58f5d1d7f83918fd9c79",
          "blockHash": "0x4d87040d96542e5460c4c44da9ae4072f0911c698113a9fcefb8fc56e950829a",
          "blockNumber": "0x563618",
          "transactionHash": "0x2e73dcdf31e3034b7fbf139fc2ad611a7323c7b4ff003c33b546f9c23769a824",
          "transactionIndex": "0x0",
          "logIndex": "0x9",
          "removed": false
        },
        {
          "address": "0xbe695ad687677b939cee5daf1b63f140698ea1e8",
          "topics": [
            "0x335721b01866dc23fbee8b6b2c7b1e14d6f05c28cd35a2c934239f94095602a0",
            "0x07e8865e9eefb7fdba6e2c2553409e44962ec437276a808e53ed8c4c386dcf35"
          ],
          "data": "0x0000000000000000000000004b74a4a9b88ef4ce5f9bb42e28e358974251be63",
          "blockHash": "0x4d87040d96542e5460c4c44da9ae4072f0911c698113a9fcefb8fc56e950829a",
          "blockNumber": "0x563618",
          "transactionHash": "0x2e73dcdf31e3034b7fbf139fc2ad611a7323c7b4ff003c33b546f9c23769a824",
          "transactionIndex": "0x0",
          "logIndex": "0xa",
          "removed": false
        },
        {
          "address": "0x4b74a4a9b88ef4ce5f9bb42e28e358974251be63",
          "topics": [
            "0xb7d29e911041e8d9b843369e890bcb72c9388692ba48b65ac54e7214c4c348f7",
            "0x07e8865e9eefb7fdba6e2c2553409e44962ec437276a808e53ed8c4c386dcf35"
          ],
          "data": "0x0000000000000000000000000000000000000000000000000000000000000020000000000000000000000000000000000000000000000000000000000000001273746576652e64617277696e69612e6574680000000000000000000000000000",
          "blockHash": "0x4d87040d96542e5460c4c44da9ae4072f0911c698113a9fcefb8fc56e950829a",
          "blockNumber": "0x563618",
          "transactionHash": "0x2e73dcdf31e3034b7fbf139fc2ad611a7323c7b4ff003c33b546f9c23769a824",
          "transactionIndex": "0x0",
          "logIndex": "0xb",
          "removed": false
        },
        {
          "address": "0x017d8c573a54cc43e2d23ec8fa756d92777c3217",
          "topics": [
            "0x0667086d08417333ce63f40d5bc2ef6fd330e25aaaf317b7c489541f8fe600fa",
            "0x05611ac011f4c8af2adf5f5b850fe4359224029d343b8627d112910fc1943e18",
            "0x000000000000000000000000b18e4c959bccc8ef86d78dc297fb5efa99550d85"
          ],
          "data": "0x000000000000000000000000000000000000000000000000000000000000004000000000000000000000000000000000000000000000000000000000698d963000000000000000000000000000000000000000000000000000000000000000057374657665000000000000000000000000000000000000000000000000000000",
          "blockHash": "0x4d87040d96542e5460c4c44da9ae4072f0911c698113a9fcefb8fc56e950829a",
          "blockNumber": "0x563618",
          "transactionHash": "0x2e73dcdf31e3034b7fbf139fc2ad611a7323c7b4ff003c33b546f9c23769a824",
          "transactionIndex": "0x0",
          "logIndex": "0xc",
          "removed": false
        }
      ],
      "logsBloom": "0x0000004000000000010000000020010000000200000000000100004210000000040000000000000000000000000010000000000000001000000000000002800200000200000000004800008c00000000000000040408000000000000000000000020000002000004000000100000080100000000001000000000001008000000000000000010008400000000000002800000011400004000001000000000000000000200000a000009080200240000000004000000008000800040040000000000000002400040000000000000004000400000001000000000401010004020000000000008000000000000400000000000000000000000008084000010000000",
      "type": "0x2",
      "transactionHash": "0x2e73dcdf31e3034b7fbf139fc2ad611a7323c7b4ff003c33b546f9c23769a824",
      "transactionIndex": "0x0",
      "blockHash": "0x4d87040d96542e5460c4c44da9ae4072f0911c698113a9fcefb8fc56e950829a",
      "blockNumber": "0x563618",
      "gasUsed": "0x55c48",
      "effectiveGasPrice": "0x1462c2a5b8",
      "from": "0xd93e82b9969cc9a016bc58f5d1d7f83918fd9c79",
      "to": "0x017d8c573a54cc43e2d23ec8fa756d92777c3217",
      "contractAddress": null
    }
  ],
  "libraries": [],
  "pending": [],
  "returns": {},
  "timestamp": 1739350709,
  "chain": 44,
  "commit": "424ed50"
}