{
  "transactions": [
    {
      "hash": "0x859ae0f434455f3ed044939f4b454a6813538122386ed73bc98ec8b4dbb3d10e",
      "transactionType": "CALL",
      "contractName": "Registry",
      "contractAddress": "0xbe695ad687677b939cee5daf1b63f140698ea1e8",
      "function": "setSubnodeOwner(bytes32,bytes32,address)",
      "arguments": [
        "0x0000000000000000000000000000000000000000000000000000000000000000",
        "0x4f5b812789fc606be1b3b16908db13fc7a9adf7ca72641f84d75b47069d3d7f0",
        "0xD93E82b9969CC9a016Bc58f5D1D7f83918fd9C79"
      ],
      "transaction": {
        "from": "0xd93e82b9969cc9a016bc58f5d1d7f83918fd9c79",
        "to": "0xbe695ad687677b939cee5daf1b63f140698ea1e8",
        "gas": "0x1182b",
        "value": "0x0",
        "input": "0x06ab592300000000000000000000000000000000000000000000000000000000000000004f5b812789fc606be1b3b16908db13fc7a9adf7ca72641f84d75b47069d3d7f0000000000000000000000000d93e82b9969cc9a016bc58f5d1d7f83918fd9c79",
        "nonce": "0x1c",
        "chainId": "0x2c"
      },
      "additionalContracts": [],
      "isFixedGasLimit": false
    },
    {
      "hash": "0xf8fd85ce830f4833d44226fe12e772b15a4bf2434830d928b0d060cd9a0430fe",
      "transactionType": "CALL",
      "contractName": "Registry",
      "contractAddress": "0xbe695ad687677b939cee5daf1b63f140698ea1e8",
      "function": "setSubnodeOwner(bytes32,bytes32,address)",
      "arguments": [
        "0x93cdeb708b7545dc668eb9280176169d1c33cfd8ed6f04690a0bcc88a93fc4ae",
        "0xb56e7bd590023d9f7a4dccb4b2de70a400cbdd21e2217700f892e9b2a7a251a7",
        "0xAFb5F12C5F379431253159fae464572999E78485"
      ],
      "transaction": {
        "from": "0xd93e82b9969cc9a016bc58f5d1d7f83918fd9c79",
        "to": "0xbe695ad687677b939cee5daf1b63f140698ea1e8",
        "gas": "0x11a3a",
        "value": "0x0",
        "input": "0x06ab592393cdeb708b7545dc668eb9280176169d1c33cfd8ed6f04690a0bcc88a93fc4aeb56e7bd590023d9f7a4dccb4b2de70a400cbdd21e2217700f892e9b2a7a251a7000000000000000000000000afb5f12c5f379431253159fae464572999e78485",
        "nonce": "0x1d",
        "chainId": "0x2c"
      },
      "additionalContracts": [],
      "isFixedGasLimit": false
    }
  ],
  "receipts": [
    {
      "status": "0x1",
      "cumulativeGasUsed": "0xbf92",
      "logs": [
        {
          "address": "0xbe695ad687677b939cee5daf1b63f140698ea1e8",
          "topics": [
            "0xce0457fe73731f824cc272376169235128c118b49d344817417c6d108d155e82",
            "0x0000000000000000000000000000000000000000000000000000000000000000",
            "0x4f5b812789fc606be1b3b16908db13fc7a9adf7ca72641f84d75b47069d3d7f0"
          ],
          "data": "0x000000000000000000000000d93e82b9969cc9a016bc58f5d1d7f83918fd9c79",
          "blockHash": "0xf267da6ed1dc56b3ac0fd3b68d580da3806ccc3eea3356e3615762fcf0d6a66a",
          "blockNumber": "0x563597",
          "transactionHash": "0x859ae0f434455f3ed044939f4b454a6813538122386ed73bc98ec8b4dbb3d10e",
          "transactionIndex": "0x0",
          "logIndex": "0x0",
          "removed": false
        }
      ],
      "logsBloom": "0x00000000100000000000000000000000000000000000000000000000000000000000000000000000000000000000400000000000000010000000000000000000000000000000000000000000000000000000000000000000000000000000000000200000020000000000000000000800000000000000000000000000000000000000000000000080000002000000000000000000000000000000000000000000000000000000000000000200000000000000000000000000000000040000000000000000000000000000000000004000000000000000000000000000000020000000000000000000000000000000000000000000000000000000000000000000",
      "type": "0x2",
      "transactionHash": "0x859ae0f434455f3ed044939f4b454a6813538122386ed73bc98ec8b4dbb3d10e",
      "transactionIndex": "0x0",
      "blockHash": "0xf267da6ed1dc56b3ac0fd3b68d580da3806ccc3eea3356e3615762fcf0d6a66a",
      "blockNumber": "0x563597",
      "gasUsed": "0xbf92",
      "effectiveGasPrice": "0x1462c2a5b8",
      "from": "0xd93e82b9969cc9a016bc58f5d1d7f83918fd9c79",
      "to": "0xbe695ad687677b939cee5daf1b63f140698ea1e8",
      "contractAddress": null
    },
    {
      "status": "0x1",
      "cumulativeGasUsed": "0x1808c",
      "logs": [
        {
          "address": "0xbe695ad687677b939cee5daf1b63f140698ea1e8",
          "topics": [
            "0xce0457fe73731f824cc272376169235128c118b49d344817417c6d108d155e82",
            "0x93cdeb708b7545dc668eb9280176169d1c33cfd8ed6f04690a0bcc88a93fc4ae",
            "0xb56e7bd590023d9f7a4dccb4b2de70a400cbdd21e2217700f892e9b2a7a251a7"
          ],
          "data": "0x000000000000000000000000afb5f12c5f379431253159fae464572999e78485",
          "blockHash": "0xf267da6ed1dc56b3ac0fd3b68d580da3806ccc3eea3356e3615762fcf0d6a66a",
          "blockNumber": "0x563597",
          "transactionHash": "0xf8fd85ce830f4833d44226fe12e772b15a4bf2434830d928b0d060cd9a0430fe",
          "transactionIndex": "0x1",
          "logIndex": "0x1",
          "removed": false
        }
      ],
      "logsBloom": "0x00000000000000000000000000100000000000000000000000000000000000000000000000000000000000000000000000000000000010000000000000000000000000000000000000000000000000000000000000000000000000000000000000200000000000000000000000000000000000000000000000000000000000000000000000000080000000000000000004000000000000000000000000000000000000200000000000800200000000000000000000000000000000050000000000000000000000000000000000004000000000000000000000004000000000000000000000000000000000000000000000000000000000000000000000000000",
      "type": "0x2",
      "transactionHash": "0xf8fd85ce830f4833d44226fe12e772b15a4bf2434830d928b0d060cd9a0430fe",
      "transactionIndex": "0x1",
      "blockHash": "0xf267da6ed1dc56b3ac0fd3b68d580da3806ccc3eea3356e3615762fcf0d6a66a",
      "blockNumber": "0x563597",
      "gasUsed": "0xc0fa",
      "effectiveGasPrice": "0x1462c2a5b8",
      "from": "0xd93e82b9969cc9a016bc58f5d1d7f83918fd9c79",
      "to": "0xbe695ad687677b939cee5daf1b63f140698ea1e8",
      "contractAddress": null
    }
  ],
  "libraries": [],
  "pending": [],
  "returns": {},
  "timestamp": 1739349926,
  "chain": 44,
  "commit": "424ed50"
}