{
  "transactions": [
    {
      "hash": "0xfead52c2d35fd195b4c11f6f143120a45db57648816cfbd19cceec9e7fff3d36",
      "transactionType": "CALL",
      "contractName": null,
      "contractAddress": "0xe669d751d2c79ea11a947ade15efb2720d7a6f94",
      "function": "setSubnodeOwner(bytes32,bytes32,address)",
      "arguments": [
        "0x0000000000000000000000000000000000000000000000000000000000000000",
        "0x4f5b812789fc606be1b3b16908db13fc7a9adf7ca72641f84d75b47069d3d7f0",
        "0xD93E82b9969CC9a016Bc58f5D1D7f83918fd9C79"
      ],
      "transaction": {
        "from": "0xd93e82b9969cc9a016bc58f5d1d7f83918fd9c79",
        "to": "0xe669d751d2c79ea11a947ade15efb2720d7a6f94",
        "gas": "0x1182b",
        "value": "0x0",
        "input": "0x06ab592300000000000000000000000000000000000000000000000000000000000000004f5b812789fc606be1b3b16908db13fc7a9adf7ca72641f84d75b47069d3d7f0000000000000000000000000d93e82b9969cc9a016bc58f5d1d7f83918fd9c79",
        "nonce": "0x6",
        "chainId": "0x2c"
      },
      "additionalContracts": [],
      "isFixedGasLimit": false
    },
    {
      "hash": "0xe8988eed274fd384953bb7883bd6960f4904a42ccc667471b4b27f3e2c3ba082",
      "transactionType": "CALL",
      "contractName": null,
      "contractAddress": "0xe669d751d2c79ea11a947ade15efb2720d7a6f94",
      "function": "setSubnodeOwner(bytes32,bytes32,address)",
      "arguments": [
        "0x93cdeb708b7545dc668eb9280176169d1c33cfd8ed6f04690a0bcc88a93fc4ae",
        "0xb56e7bd590023d9f7a4dccb4b2de70a400cbdd21e2217700f892e9b2a7a251a7",
        "0xae6538b36E50c98bf776626ec845e2128486b7A3"
      ],
      "transaction": {
        "from": "0xd93e82b9969cc9a016bc58f5d1d7f83918fd9c79",
        "to": "0xe669d751d2c79ea11a947ade15efb2720d7a6f94",
        "gas": "0x11a3a",
        "value": "0x0",
        "input": "0x06ab592393cdeb708b7545dc668eb9280176169d1c33cfd8ed6f04690a0bcc88a93fc4aeb56e7bd590023d9f7a4dccb4b2de70a400cbdd21e2217700f892e9b2a7a251a7000000000000000000000000ae6538b36e50c98bf776626ec845e2128486b7a3",
        "nonce": "0x7",
        "chainId": "0x2c"
      },
      "additionalContracts": [],
      "isFixedGasLimit": false
    }
  ],
  "receipts": [
    {
      "status": "0x1",
      "cumulativeGasUsed": "0xbf92",
      "logs": [
        {
          "address": "0xe669d751d2c79ea11a947ade15efb2720d7a6f94",
          "topics": [
            "0xce0457fe73731f824cc272376169235128c118b49d344817417c6d108d155e82",
            "0x0000000000000000000000000000000000000000000000000000000000000000",
            "0x4f5b812789fc606be1b3b16908db13fc7a9adf7ca72641f84d75b47069d3d7f0"
          ],
          "data": "0x000000000000000000000000d93e82b9969cc9a016bc58f5d1d7f83918fd9c79",
          "blockHash": "0xa7fabdaf89627037630b8ee3ee0137ae9ca0fd53d157c25f0104b3e8afc2158b",
          "blockNumber": "0x52fded",
          "transactionHash": "0xfead52c2d35fd195b4c11f6f143120a45db57648816cfbd19cceec9e7fff3d36",
          "transactionIndex": "0x0",
          "logIndex": "0x0",
          "removed": false
        }
      ],
      "logsBloom": "0x00000000100000000000000000000000000000000000000000000000000000000000000800000000000000000000400000000000000010000000000000000000000000000000000000000000000000000000000000000000000000000000000000000000020000000000000000000800000000000000000000000000000000000000000000000000000002000000000000000000000000000000000000000000000000000000000000000000000000000000000000000000000000040000000000000000000000000000000000004000000000000000000000000000000020000000000000000000000000000010000000010000000000000000000000000000",
      "type": "0x2",
      "transactionHash": "0xfead52c2d35fd195b4c11f6f143120a45db57648816cfbd19cceec9e7fff3d36",
      "transactionIndex": "0x0",
      "blockHash": "0xa7fabdaf89627037630b8ee3ee0137ae9ca0fd53d157c25f0104b3e8afc2158b",
      "blockNumber": "0x52fded",
      "gasUsed": "0xbf92",
      "effectiveGasPrice": "0x1462c2a5b8",
      "from": "0xd93e82b9969cc9a016bc58f5d1d7f83918fd9c79",
      "to": "0xe669d751d2c79ea11a947ade15efb2720d7a6f94",
      "contractAddress": null
    },
    {
      "status": "0x1",
      "cumulativeGasUsed": "0x1808c",
      "logs": [
        {
          "address": "0xe669d751d2c79ea11a947ade15efb2720d7a6f94",
          "topics": [
            "0xce0457fe73731f824cc272376169235128c118b49d344817417c6d108d155e82",
            "0x93cdeb708b7545dc668eb9280176169d1c33cfd8ed6f04690a0bcc88a93fc4ae",
            "0xb56e7bd590023d9f7a4dccb4b2de70a400cbdd21e2217700f892e9b2a7a251a7"
          ],
          "data": "0x000000000000000000000000ae6538b36e50c98bf776626ec845e2128486b7a3",
          "blockHash": "0xa7fabdaf89627037630b8ee3ee0137ae9ca0fd53d157c25f0104b3e8afc2158b",
          "blockNumber": "0x52fded",
          "transactionHash": "0xe8988eed274fd384953bb7883bd6960f4904a42ccc667471b4b27f3e2c3ba082",
          "transactionIndex": "0x1",
          "logIndex": "0x1",
          "removed": false
        }
      ],
      "logsBloom": "0x00000000000000000000000000100000000000000000000000000000000000000000000800000000000000000000000000000000000010000000000000000000000000000000000000000000000000000000000000000000000000000000000000000000000000000000000000000000000000000000000000000000000000000000000000000000000000000000000004000000000000000000000000000000000000200000000000800000000000000000000000000000000000050000000000000000000000000000000000004000000000000000000000004000000000000000000000000000000000000010000000010000000000000000000000000000",
      "type": "0x2",
      "transactionHash": "0xe8988eed274fd384953bb7883bd6960f4904a42ccc667471b4b27f3e2c3ba082",
      "transactionIndex": "0x1",
      "blockHash": "0xa7fabdaf89627037630b8ee3ee0137ae9ca0fd53d157c25f0104b3e8afc2158b",
      "blockNumber": "0x52fded",
      "gasUsed": "0xc0fa",
      "effectiveGasPrice": "0x1462c2a5b8",
      "from": "0xd93e82b9969cc9a016bc58f5d1d7f83918fd9c79",
      "to": "0xe669d751d2c79ea11a947ade15efb2720d7a6f94",
      "contractAddress": null
    }
  ],
  "libraries": [],
  "pending": [],
  "returns": {},
  "timestamp": 1738040410,
  "chain": 44,
  "commit": "889722a"
}