{
  "transactions": [
    {
      "hash": "0x13d05891b3235f7127deb537a2344bfd4168d262680ec172feab249d31974063",
      "transactionType": "CALL",
      "contractName": "Registry",
      "contractAddress": "0xbe695ad687677b939cee5daf1b63f140698ea1e8",
      "function": "setSubnodeOwner(bytes32,bytes32,address)",
      "arguments": [
        "0x0000000000000000000000000000000000000000000000000000000000000000",
        "0xdec08c9dbbdd0890e300eb5062089b2d4b1c40e3673bbccb5423f7b37dcf9a9c",
        "0xD93E82b9969CC9a016Bc58f5D1D7f83918fd9C79"
      ],
      "transaction": {
        "from": "0xd93e82b9969cc9a016bc58f5d1d7f83918fd9c79",
        "to": "0xbe695ad687677b939cee5daf1b63f140698ea1e8",
        "gas": "0xa66a",
        "value": "0x0",
        "input": "0x06ab59230000000000000000000000000000000000000000000000000000000000000000dec08c9dbbdd0890e300eb5062089b2d4b1c40e3673bbccb5423f7b37dcf9a9c000000000000000000000000d93e82b9969cc9a016bc58f5d1d7f83918fd9c79",
        "nonce": "0x1e",
        "chainId": "0x2c"
      },
      "additionalContracts": [],
      "isFixedGasLimit": false
    },
    {
      "hash": "0x964894175121092b01f05cc5f16e8d37b253d19df4964f469093bf6f08041d35",
      "transactionType": "CALL",
      "contractName": "Registry",
      "contractAddress": "0xbe695ad687677b939cee5daf1b63f140698ea1e8",
      "function": "setSubnodeOwner(bytes32,bytes32,address)",
      "arguments": [
        "0xa097f6721ce401e757d1223a763fef49b8b5f90bb18567ddb86fd205dff71d34",
        "0xe5e14487b78f85faa6e1808e89246cf57dd34831548ff2e6097380d98db2504a",
        "0xc4848453278116613F6CC1660BffAD5a4ac2182E"
      ],
      "transaction": {
        "from": "0xd93e82b9969cc9a016bc58f5d1d7f83918fd9c79",
        "to": "0xbe695ad687677b939cee5daf1b63f140698ea1e8",
        "gas": "0x11a5d",
        "value": "0x0",
        "input": "0x06ab5923a097f6721ce401e757d1223a763fef49b8b5f90bb18567ddb86fd205dff71d34e5e14487b78f85faa6e1808e89246cf57dd34831548ff2e6097380d98db2504a000000000000000000000000c4848453278116613f6cc1660bffad5a4ac2182e",
        "nonce": "0x1f",
        "chainId": "0x2c"
      },
      "additionalContracts": [],
      "isFixedGasLimit": false
    }
  ],
  "receipts": [
    {
      "status": "0x1",
      "cumulativeGasUsed": "0x71ca",
      "logs": [
        {
          "address": "0xbe695ad687677b939cee5daf1b63f140698ea1e8",
          "topics": [
            "0xce0457fe73731f824cc272376169235128c118b49d344817417c6d108d155e82",
            "0x0000000000000000000000000000000000000000000000000000000000000000",
            "0xdec08c9dbbdd0890e300eb5062089b2d4b1c40e3673bbccb5423f7b37dcf9a9c"
          ],
          "data": "0x000000000000000000000000d93e82b9969cc9a016bc58f5d1d7f83918fd9c79",
          "blockHash": "0x560e975f5f7363eac62a5d3cd4c2338425a6b215672915c4d3513f06efad62c7",
          "blockNumber": "0x56359d",
          "transactionHash": "0x13d05891b3235f7127deb537a2344bfd4168d262680ec172feab249d31974063",
          "transactionIndex": "0x0",
          "logIndex": "0x0",
          "removed": false
        }
      ],
      "logsBloom": "0x00000000000000000000000000000000000000000000000000000000000000400000000000000000000000000000000000000000000010000000000000000000000000000000000000000000000000000000000000000000000000000000000000200000020000000000000000000800000000000000000000000000000000000000000000000082000000000000000000000000000000000000000000000000000000000000000000000200000000000000000000000000000000040000000000000000000000000000000000004000000000000000000000000000000020000000000000000000000000000000000000000000000000000000000000000400",
      "type": "0x2",
      "transactionHash": "0x13d05891b3235f7127deb537a2344bfd4168d262680ec172feab249d31974063",
      "transactionIndex": "0x0",
      "blockHash": "0x560e975f5f7363eac62a5d3cd4c2338425a6b215672915c4d3513f06efad62c7",
      "blockNumber": "0x56359d",
      "gasUsed": "0x71ca",
      "effectiveGasPrice": "0x1462c2a5b8",
      "from": "0xd93e82b9969cc9a016bc58f5d1d7f83918fd9c79",
      "to": "0xbe695ad687677b939cee5daf1b63f140698ea1e8",
      "contractAddress": null
    },
    {
      "status": "0x1",
      "cumulativeGasUsed": "0x132dc",
      "logs": [
        {
          "address": "0xbe695ad687677b939cee5daf1b63f140698ea1e8",
          "topics": [
            "0xce0457fe73731f824cc272376169235128c118b49d344817417c6d108d155e82",
            "0xa097f6721ce401e757d1223a763fef49b8b5f90bb18567ddb86fd205dff71d34",
            "0xe5e14487b78f85faa6e1808e89246cf57dd34831548ff2e6097380d98db2504a"
          ],
          "data": "0x000000000000000000000000c4848453278116613f6cc1660bffad5a4ac2182e",
          "blockHash": "0x560e975f5f7363eac62a5d3cd4c2338425a6b215672915c4d3513f06efad62c7",
          "blockNumber": "0x56359d",
          "transactionHash": "0x964894175121092b01f05cc5f16e8d37b253d19df4964f469093bf6f08041d35",
          "transactionIndex": "0x1",
          "logIndex": "0x1",
          "removed": false
        }
      ],
      "logsBloom": "0x00000000000000000000000000000000000000000000000000800000000000000000000000000000000000000000000000000000000010000000000000000000000000000000000000000000000000000000000000000000000000000000000000200000000800000000000000000000000000000001000000000000000000000000000000000080000000000000000000000000000000000000000000000000000000000000000000000200000000000000000000000000000000040000000000000000000000000000000000004000001000000000000000000000000000000000000000000040000000000000000000000000000000000000000010000000",
      "type": "0x2",
      "transactionHash": "0x964894175121092b01f05cc5f16e8d37b253d19df4964f469093bf6f08041d35",
      "transactionIndex": "0x1",
      "blockHash": "0x560e975f5f7363eac62a5d3cd4c2338425a6b215672915c4d3513f06efad62c7",
      "blockNumber": "0x56359d",
      "gasUsed": "0xc112",
      "effectiveGasPrice": "0x1462c2a5b8",
      "from": "0xd93e82b9969cc9a016bc58f5d1d7f83918fd9c79",
      "to": "0xbe695ad687677b939cee5daf1b63f140698ea1e8",
      "contractAddress": null
    }
  ],
  "libraries": [],
  "pending": [],
  "returns": {},
  "timestamp": 1739349956,
  "chain": 44,
  "commit": "424ed50"
}