{
  "transactions": [
    {
      "hash": "0xbcc2526d79b49ffb89a5074c99ef54f0ebd150e2fbe3807efdaebff984e17bc8",
      "transactionType": "CALL",
      "contractName": null,
      "contractAddress": "0xe669d751d2c79ea11a947ade15efb2720d7a6f94",
      "function": "setSubnodeOwner(bytes32,bytes32,address)",
      "arguments": [
        "0x0000000000000000000000000000000000000000000000000000000000000000",
        "0xdec08c9dbbdd0890e300eb5062089b2d4b1c40e3673bbccb5423f7b37dcf9a9c",
        "0xD93E82b9969CC9a016Bc58f5D1D7f83918fd9C79"
      ],
      "transaction": {
        "from": "0xd93e82b9969cc9a016bc58f5d1d7f83918fd9c79",
        "to": "0xe669d751d2c79ea11a947ade15efb2720d7a6f94",
        "gas": "0xa66a",
        "value": "0x0",
        "input": "0x06ab59230000000000000000000000000000000000000000000000000000000000000000dec08c9dbbdd0890e300eb5062089b2d4b1c40e3673bbccb5423f7b37dcf9a9c000000000000000000000000d93e82b9969cc9a016bc58f5d1d7f83918fd9c79",
        "nonce": "0x8",
        "chainId": "0x2c"
      },
      "additionalContracts": [],
      "isFixedGasLimit": false
    },
    {
      "hash": "0xb70fbeac07fb7cd3b3cd6d868f6b55a60f1e3375996b3b136844ded48adbd530",
      "transactionType": "CALL",
      "contractName": null,
      "contractAddress": "0xe669d751d2c79ea11a947ade15efb2720d7a6f94",
      "function": "setSubnodeOwner(bytes32,bytes32,address)",
      "arguments": [
        "0xa097f6721ce401e757d1223a763fef49b8b5f90bb18567ddb86fd205dff71d34",
        "0xe5e14487b78f85faa6e1808e89246cf57dd34831548ff2e6097380d98db2504a",
        "0x3173c3e608125226A0069ba75f8feb73b221974a"
      ],
      "transaction": {
        "from": "0xd93e82b9969cc9a016bc58f5d1d7f83918fd9c79",
        "to": "0xe669d751d2c79ea11a947ade15efb2720d7a6f94",
        "gas": "0x11a5d",
        "value": "0x0",
        "input": "0x06ab5923a097f6721ce401e757d1223a763fef49b8b5f90bb18567ddb86fd205dff71d34e5e14487b78f85faa6e1808e89246cf57dd34831548ff2e6097380d98db2504a0000000000000000000000003173c3e608125226a0069ba75f8feb73b221974a",
        "nonce": "0x9",
        "chainId": "0x2c"
      },
      "additionalContracts": [],
      "isFixedGasLimit": false
    }
  ],
  "receipts": [
    {
      "status": "0x1",
      "cumulativeGasUsed": "0x71ca",
      "logs": [
        {
          "address": "0xe669d751d2c79ea11a947ade15efb2720d7a6f94",
          "topics": [
            "0xce0457fe73731f824cc272376169235128c118b49d344817417c6d108d155e82",
            "0x0000000000000000000000000000000000000000000000000000000000000000",
            "0xdec08c9dbbdd0890e300eb5062089b2d4b1c40e3673bbccb5423f7b37dcf9a9c"
          ],
          "data": "0x000000000000000000000000d93e82b9969cc9a016bc58f5d1d7f83918fd9c79",
          "blockHash": "0xadfc277619da561783972708195d2dd90d171eeedca14648a69e37dd5c752a71",
          "blockNumber": "0x52fdf6",
          "transactionHash": "0xbcc2526d79b49ffb89a5074c99ef54f0ebd150e2fbe3807efdaebff984e17bc8",
          "transactionIndex": "0x0",
          "logIndex": "0x0",
          "removed": false
        }
      ],
      "logsBloom": "0x00000000000000000000000000000000000000000000000000000000000000400000000800000000000000000000000000000000000010000000000000000000000000000000000000000000000000000000000000000000000000000000000000000000020000000000000000000800000000000000000000000000000000000000000000000002000000000000000000000000000000000000000000000000000000000000000000000000000000000000000000000000000000040000000000000000000000000000000000004000000000000000000000000000000020000000000000000000000000000010000000010000000000000000000000000400",
      "type": "0x2",
      "transactionHash": "0xbcc2526d79b49ffb89a5074c99ef54f0ebd150e2fbe3807efdaebff984e17bc8",
      "transactionIndex": "0x0",
      "blockHash": "0xadfc277619da561783972708195d2dd90d171eeedca14648a69e37dd5c752a71",
      "blockNumber": "0x52fdf6",
      "gasUsed": "0x71ca",
      "effectiveGasPrice": "0x1462c2a5b8",
      "from": "0xd93e82b9969cc9a016bc58f5d1d7f83918fd9c79",
      "to": "0xe669d751d2c79ea11a947ade15efb2720d7a6f94",
      "contractAddress": null
    },
    {
      "status": "0x1",
      "cumulativeGasUsed": "0xc112",
      "logs": [
        {
          "address": "0xe669d751d2c79ea11a947ade15efb2720d7a6f94",
          "topics": [
            "0xce0457fe73731f824cc272376169235128c118b49d344817417c6d108d155e82",
            "0xa097f6721ce401e757d1223a763fef49b8b5f90bb18567ddb86fd205dff71d34",
            "0xe5e14487b78f85faa6e1808e89246cf57dd34831548ff2e6097380d98db2504a"
          ],
          "data": "0x0000000000000000000000003173c3e608125226a0069ba75f8feb73b221974a",
          "blockHash": "0x3822af94a846b20ee6f36f793294fcdb91c4bc402a4875c9466445fa00a0aa11",
          "blockNumber": "0x52fdf7",
          "transactionHash": "0xb70fbeac07fb7cd3b3cd6d868f6b55a60f1e3375996b3b136844ded48adbd530",
          "transactionIndex": "0x0",
          "logIndex": "0x0",
          "removed": false
        }
      ],
      "logsBloom": "0x00000000000000000000000000000000000000000000000000800000000000000000000800000000000000000000000000000000000010000000000000000000000000000000000000000000000000000000000000000000000000000000000000000000000800000000000000000000000000000001000000000000000000000000000000000000000000000000000000000000000000000000000000000000000000000000000000000000000000000000000000000000000000040000000000000000000000000000000000004000001000000000000000000000000000000000000000000040000000000010000000010000000000000000000010000000",
      "type": "0x2",
      "transactionHash": "0xb70fbeac07fb7cd3b3cd6d868f6b55a60f1e3375996b3b136844ded48adbd530",
      "transactionIndex": "0x0",
      "blockHash": "0x3822af94a846b20ee6f36f793294fcdb91c4bc402a4875c9466445fa00a0aa11",
      "blockNumber": "0x52fdf7",
      "gasUsed": "0xc112",
      "effectiveGasPrice": "0x1462c2a5b8",
      "from": "0xd93e82b9969cc9a016bc58f5d1d7f83918fd9c79",
      "to": "0xe669d751d2c79ea11a947ade15efb2720d7a6f94",
      "contractAddress": null
    }
  ],
  "libraries": [],
  "pending": [],
  "returns": {},
  "timestamp": 1738040477,
  "chain": 44,
  "commit": "889722a"
}