{
  "transactions": [
    {
      "hash": "0x2da240db8283ad30255693f30a347d2eb5c50ab16a443365bef74ed5be953392",
      "transactionType": "CALL",
      "contractName": null,
      "contractAddress": "0x6527ee13a001fa9a55b005ccd9e204f8a6f156b3",
      "function": "setSubnodeOwner(bytes32,bytes32,address)",
      "arguments": [
        "0x0000000000000000000000000000000000000000000000000000000000000000",
        "0xdec08c9dbbdd0890e300eb5062089b2d4b1c40e3673bbccb5423f7b37dcf9a9c",
        "0x6Be02d1d3665660d22FF9624b7BE0551ee1Ac91b"
      ],
      "transaction": {
        "from": "0x6be02d1d3665660d22ff9624b7be0551ee1ac91b",
        "to": "0x6527ee13a001fa9a55b005ccd9e204f8a6f156b3",
        "gas": "0xa66a",
        "value": "0x0",
        "input": "0x06ab59230000000000000000000000000000000000000000000000000000000000000000dec08c9dbbdd0890e300eb5062089b2d4b1c40e3673bbccb5423f7b37dcf9a9c0000000000000000000000006be02d1d3665660d22ff9624b7be0551ee1ac91b",
        "nonce": "0x35",
        "chainId": "0x2bd"
      },
      "additionalContracts": [],
      "isFixedGasLimit": false
    },
    {
      "hash": "0xedc9720f8c90b302708d323e98fbccde13ef15aed3968d9373cacac2dfac3d93",
      "transactionType": "CALL",
      "contractName": null,
      "contractAddress": "0x6527ee13a001fa9a55b005ccd9e204f8a6f156b3",
      "function": "setSubnodeOwner(bytes32,bytes32,address)",
      "arguments": [
        "0xa097f6721ce401e757d1223a763fef49b8b5f90bb18567ddb86fd205dff71d34",
        "0xe5e14487b78f85faa6e1808e89246cf57dd34831548ff2e6097380d98db2504a",
        "0xc04dF41F6382A5dB5752533E0DC93123DaACeD8E"
      ],
      "transaction": {
        "from": "0x6be02d1d3665660d22ff9624b7be0551ee1ac91b",
        "to": "0x6527ee13a001fa9a55b005ccd9e204f8a6f156b3",
        "gas": "0x11a5d",
        "value": "0x0",
        "input": "0x06ab5923a097f6721ce401e757d1223a763fef49b8b5f90bb18567ddb86fd205dff71d34e5e14487b78f85faa6e1808e89246cf57dd34831548ff2e6097380d98db2504a000000000000000000000000c04df41f6382a5db5752533e0dc93123daaced8e",
        "nonce": "0x36",
        "chainId": "0x2bd"
      },
      "additionalContracts": [],
      "isFixedGasLimit": false
    }
  ],
  "receipts": [
    {
      "status": "0x1",
      "cumulativeGasUsed": "0x71ca",
      "logs": [
        {
          "address": "0x6527ee13a001fa9a55b005ccd9e204f8a6f156b3",
          "topics": [
            "0xce0457fe73731f824cc272376169235128c118b49d344817417c6d108d155e82",
            "0x0000000000000000000000000000000000000000000000000000000000000000",
            "0xdec08c9dbbdd0890e300eb5062089b2d4b1c40e3673bbccb5423f7b37dcf9a9c"
          ],
          "data": "0x0000000000000000000000006be02d1d3665660d22ff9624b7be0551ee1ac91b",
          "blockHash": "0x9ac651baa7016393549b44432c4f4fb1a8a41e4ca17e8416abc0b065f295e075",
          "blockNumber": "0x1a0631",
          "transactionHash": "0x2da240db8283ad30255693f30a347d2eb5c50ab16a443365bef74ed5be953392",
          "transactionIndex": "0x0",
          "logIndex": "0x0",
          "removed": false
        }
      ],
      "logsBloom": "0x00000000000000000000000000000000000000000000000000000000000000400000000000000000000000000000000000000000000010000000000000000000000000000000000000000000000000000000000000000000000000000000000000000000020000000000000400000800000000000000000000000000000000000000000000000002000000200000000000000000000000000000000000000000000000000000000000000000000000000000000000000000000000040000000000000000000000000000000000004000000000000000000000000000000020000000000000000000000000000000000000000000000000000000000000004400",
      "type": "0x2",
      "transactionHash": "0x2da240db8283ad30255693f30a347d2eb5c50ab16a443365bef74ed5be953392",
      "transactionIndex": "0x0",
      "blockHash": "0x9ac651baa7016393549b44432c4f4fb1a8a41e4ca17e8416abc0b065f295e075",
      "blockNumber": "0x1a0631",
      "gasUsed": "0x71ca",
      "effectiveGasPrice": "0x118b677081",
      "from": "0x6be02d1d3665660d22ff9624b7be0551ee1ac91b",
      "to": "0x6527ee13a001fa9a55b005ccd9e204f8a6f156b3",
      "contractAddress": null
    },
    {
      "status": "0x1",
      "cumulativeGasUsed": "0x132dc",
      "logs": [
        {
          "address": "0x6527ee13a001fa9a55b005ccd9e204f8a6f156b3",
          "topics": [
            "0xce0457fe73731f824cc272376169235128c118b49d344817417c6d108d155e82",
            "0xa097f6721ce401e757d1223a763fef49b8b5f90bb18567ddb86fd205dff71d34",
            "0xe5e14487b78f85faa6e1808e89246cf57dd34831548ff2e6097380d98db2504a"
          ],
          "data": "0x000000000000000000000000c04df41f6382a5db5752533e0dc93123daaced8e",
          "blockHash": "0x9ac651baa7016393549b44432c4f4fb1a8a41e4ca17e8416abc0b065f295e075",
          "blockNumber": "0x1a0631",
          "transactionHash": "0xedc9720f8c90b302708d323e98fbccde13ef15aed3968d9373cacac2dfac3d93",
          "transactionIndex": "0x1",
          "logIndex": "0x1",
          "removed": false
        }
      ],
      "logsBloom": "0x00000000000000000000000000000000000000000000000000800000000000000000000000000000000000000000000000000000000010000000000000000000000000000000000000000000000000000000000000000000000000000000000000000000000800000000000400000000000000000001000000000000000000000000000000000000000000200000000000000000000000000000000000000000000000000000000000000000000000000000000000000000000000040000000000000000000000000000000000004000001000000000000000000000000000000000000000000040000000000000000000000000000000000000000010004000",
      "type": "0x2",
      "transactionHash": "0xedc9720f8c90b302708d323e98fbccde13ef15aed3968d9373cacac2dfac3d93",
      "transactionIndex": "0x1",
      "blockHash": "0x9ac651baa7016393549b44432c4f4fb1a8a41e4ca17e8416abc0b065f295e075",
      "blockNumber": "0x1a0631",
      "gasUsed": "0xc112",
      "effectiveGasPrice": "0x118b677081",
      "from": "0x6be02d1d3665660d22ff9624b7be0551ee1ac91b",
      "to": "0x6527ee13a001fa9a55b005ccd9e204f8a6f156b3",
      "contractAddress": null
    }
  ],
  "libraries": [],
  "pending": [],
  "returns": {},
  "timestamp": 1729845601,
  "chain": 701,
  "commit": "e6e46f7"
}