{
  "transactions": [
    {
      "hash": "0xfd9dd7a2e81298e71e5b396721a2fdd12fb5fa61c5d269859588ace25755ae09",
      "transactionType": "CALL",
      "contractName": null,
      "contractAddress": "0xd3e89bb05f63337a450711156683d533db976c85",
      "function": "setSubnodeOwner(bytes32,bytes32,address)",
      "arguments": [
        "0x0000000000000000000000000000000000000000000000000000000000000000",
        "0xdec08c9dbbdd0890e300eb5062089b2d4b1c40e3673bbccb5423f7b37dcf9a9c",
        "0x6Be02d1d3665660d22FF9624b7BE0551ee1Ac91b"
      ],
      "transaction": {
        "from": "0x6be02d1d3665660d22ff9624b7be0551ee1ac91b",
        "to": "0xd3e89bb05f63337a450711156683d533db976c85",
        "gas": "0xa66a",
        "value": "0x0",
        "input": "0x06ab59230000000000000000000000000000000000000000000000000000000000000000dec08c9dbbdd0890e300eb5062089b2d4b1c40e3673bbccb5423f7b37dcf9a9c0000000000000000000000006be02d1d3665660d22ff9624b7be0551ee1ac91b",
        "nonce": "0x3e",
        "chainId": "0x2bd"
      },
      "additionalContracts": [],
      "isFixedGasLimit": false
    },
    {
      "hash": "0x5053a4b1bef4338c4e00c5ef30154370047d721464c9d15852ce5c276179e56e",
      "transactionType": "CALL",
      "contractName": null,
      "contractAddress": "0xd3e89bb05f63337a450711156683d533db976c85",
      "function": "setSubnodeOwner(bytes32,bytes32,address)",
      "arguments": [
        "0xa097f6721ce401e757d1223a763fef49b8b5f90bb18567ddb86fd205dff71d34",
        "0xe5e14487b78f85faa6e1808e89246cf57dd34831548ff2e6097380d98db2504a",
        "0x315F0C8877881c880d0675E84d915D23E0538502"
      ],
      "transaction": {
        "from": "0x6be02d1d3665660d22ff9624b7be0551ee1ac91b",
        "to": "0xd3e89bb05f63337a450711156683d533db976c85",
        "gas": "0x11a5d",
        "value": "0x0",
        "input": "0x06ab5923a097f6721ce401e757d1223a763fef49b8b5f90bb18567ddb86fd205dff71d34e5e14487b78f85faa6e1808e89246cf57dd34831548ff2e6097380d98db2504a000000000000000000000000315f0c8877881c880d0675e84d915d23e0538502",
        "nonce": "0x3f",
        "chainId": "0x2bd"
      },
      "additionalContracts": [],
      "isFixedGasLimit": false
    }
  ],
  "receipts": [
    {
      "status": "0x1",
      "cumulativeGasUsed": "0x71ca",
      "logs": [
        {
          "address": "0xd3e89bb05f63337a450711156683d533db976c85",
          "topics": [
            "0xce0457fe73731f824cc272376169235128c118b49d344817417c6d108d155e82",
            "0x0000000000000000000000000000000000000000000000000000000000000000",
            "0xdec08c9dbbdd0890e300eb5062089b2d4b1c40e3673bbccb5423f7b37dcf9a9c"
          ],
          "data": "0x0000000000000000000000006be02d1d3665660d22ff9624b7be0551ee1ac91b",
          "blockHash": "0xe4cd21b7e113855ae1cdfba94a99513aaacd7204b7ff2b616d5363d31e697194",
          "blockNumber": "0x1a07c0",
          "transactionHash": "0xfd9dd7a2e81298e71e5b396721a2fdd12fb5fa61c5d269859588ace25755ae09",
          "transactionIndex": "0x0",
          "logIndex": "0x0",
          "removed": false
        }
      ],
      "logsBloom": "0x00000000000000000008000000000000000000000000000000000000000000400000000000000000000000000000000000000000000010000000000000000000000000000000000000040000000000000000000000000000000000000000000000000000020000000000000000000800000000000000000000000000000000000000000000000002000000000000000000000000000000000000000000000000000000000000000000000000000000000000000000000000000000240000000000000000000000000000000000004000000000000000000000000000000020000000000000000000000000000000000000000000000000000000000000000400",
      "type": "0x2",
      "transactionHash": "0xfd9dd7a2e81298e71e5b396721a2fdd12fb5fa61c5d269859588ace25755ae09",
      "transactionIndex": "0x0",
      "blockHash": "0xe4cd21b7e113855ae1cdfba94a99513aaacd7204b7ff2b616d5363d31e697194",
      "blockNumber": "0x1a07c0",
      "gasUsed": "0x71ca",
      "effectiveGasPrice": "0x118b677081",
      "from": "0x6be02d1d3665660d22ff9624b7be0551ee1ac91b",
      "to": "0xd3e89bb05f63337a450711156683d533db976c85",
      "contractAddress": null
    },
    {
      "status": "0x1",
      "cumulativeGasUsed": "0x132dc",
      "logs": [
        {
          "address": "0xd3e89bb05f63337a450711156683d533db976c85",
          "topics": [
            "0xce0457fe73731f824cc272376169235128c118b49d344817417c6d108d155e82",
            "0xa097f6721ce401e757d1223a763fef49b8b5f90bb18567ddb86fd205dff71d34",
            "0xe5e14487b78f85faa6e1808e89246cf57dd34831548ff2e6097380d98db2504a"
          ],
          "data": "0x000000000000000000000000315f0c8877881c880d0675e84d915d23e0538502",
          "blockHash": "0xe4cd21b7e113855ae1cdfba94a99513aaacd7204b7ff2b616d5363d31e697194",
          "blockNumber": "0x1a07c0",
          "transactionHash": "0x5053a4b1bef4338c4e00c5ef30154370047d721464c9d15852ce5c276179e56e",
          "transactionIndex": "0x1",
          "logIndex": "0x1",
          "removed": false
        }
      ],
      "logsBloom": "0x00000000000000000008000000000000000000000000000000800000000000000000000000000000000000000000000000000000000010000000000000000000000000000000000000040000000000000000000000000000000000000000000000000000000800000000000000000000000000000001000000000000000000000000000000000000000000000000000000000000000000000000000000000000000000000000000000000000000000000000000000000000000000240000000000000000000000000000000000004000001000000000000000000000000000000000000000000040000000000000000000000000000000000000000010000000",
      "type": "0x2",
      "transactionHash": "0x5053a4b1bef4338c4e00c5ef30154370047d721464c9d15852ce5c276179e56e",
      "transactionIndex": "0x1",
      "blockHash": "0xe4cd21b7e113855ae1cdfba94a99513aaacd7204b7ff2b616d5363d31e697194",
      "blockNumber": "0x1a07c0",
      "gasUsed": "0xc112",
      "effectiveGasPrice": "0x118b677081",
      "from": "0x6be02d1d3665660d22ff9624b7be0551ee1ac91b",
      "to": "0xd3e89bb05f63337a450711156683d533db976c85",
      "contractAddress": null
    }
  ],
  "libraries": [],
  "pending": [],
  "returns": {},
  "timestamp": 1729848062,
  "chain": 701,
  "commit": "e6e46f7"
}