{
  "transactions": [
    {
      "hash": "0x4a2565466954e4c365ab747ace9127f5d5cb0f7c1d64d3d1b4dbfa2dbb89f2fa",
      "transactionType": "CALL",
      "contractName": "RegistrarController",
      "contractAddress": "0x50d634e43f5ad7748cf2860760b887655524b593",
      "function": "register((string,address,uint256,address,bytes[],bool))",
      "arguments": [
        "(steve, 0xB18e4C959bccc8EF86D78DC297fb5efA99550d85, 31536000, 0x537F40580bB46Ad299F522D1cAC2B7cb71bE7892, [0xd5fa2b00c6160cc97b7a7183799c9e8f27fb97ab4c90372ed63d133938f1464a053420c1000000000000000000000000b18e4c959bccc8ef86d78dc297fb5efa99550d85, 0x10f13a8cc6160cc97b7a7183799c9e8f27fb97ab4c90372ed63d133938f1464a053420c1000000000000000000000000000000000000000000000000000000000000006000000000000000000000000000000000000000000000000000000000000000a00000000000000000000000000000000000000000000000000000000000000007616d69636f6f6c0000000000000000000000000000000000000000000000000000000000000000000000000000000000000000000000000000000000000000037965730000000000000000000000000000000000000000000000000000000000], false)"
      ],
      "transaction": {
        "from": "0x6be02d1d3665660d22ff9624b7be0551ee1ac91b",
        "to": "0x50d634e43f5ad7748cf2860760b887655524b593",
        "gas": "0x552ab",
        "value": "0x38caa5763a100",
        "input": "0xc7c79676000000000000000000000000000000000000000000000000000000000000002000000000000000000000000000000000000000000000000000000000000000c0000000000000000000000000b18e4c959bccc8ef86d78dc297fb5efa99550d850000000000000000000000000000000000000000000000000000000001e13380000000000000000000000000537f40580bb46ad299f522d1cac2b7cb71be789200000000000000000000000000000000000000000000000000000000000001000000000000000000000000000000000000000000000000000000000000000000000000000000000000000000000000000000000000000000000000000000000573746576650000000000000000000000000000000000000000000000000000000000000000000000000000000000000000000000000000000000000000000002000000000000000000000000000000000000000000000000000000000000004000000000000000000000000000000000000000000000000000000000000000c00000000000000000000000000000000000000000000000000000000000000044d5fa2b00c6160cc97b7a7183799c9e8f27fb97ab4c90372ed63d133938f1464a053420c1000000000000000000000000b18e4c959bccc8ef86d78dc297fb5efa99550d850000000000000000000000000000000000000000000000000000000000000000000000000000000000000000000000000000000000000000000000e410f13a8cc6160cc97b7a7183799c9e8f27fb97ab4c90372ed63d133938f1464a053420c1000000000000000000000000000000000000000000000000000000000000006000000000000000000000000000000000000000000000000000000000000000a00000000000000000000000000000000000000000000000000000000000000007616d69636f6f6c000000000000000000000000000000000000000000000000000000000000000000000000000000000000000000000000000000000000000003796573000000000000000000000000000000000000000000000000000000000000000000000000000000000000000000000000000000000000000000",
        "nonce": "0x45",
        "chainId": "0x2bd"
      },
      "additionalContracts": [],
      "isFixedGasLimit": false
    }
  ],
  "receipts": [
    {
      "status": "0x1",
      "cumulativeGasUsed": "0x3ef04",
      "logs": [
        {
          "address": "0x50d634e43f5ad7748cf2860760b887655524b593",
          "topics": [
            "0xbc769889246686134856b409155bb87630ea5797a705fa98b61f576d316aab9b",
            "0x0000000000000000000000006be02d1d3665660d22ff9624b7be0551ee1ac91b"
          ],
          "data": "0x00000000000000000000000000000000000000000000000000038caa5763a100",
          "blockHash": "0xa3acc2d3fbbdd1903ccb216e48435591b03e02f1862befbbf180b551bed54a52",
          "blockNumber": "0x1a0910",
          "transactionHash": "0x4a2565466954e4c365ab747ace9127f5d5cb0f7c1d64d3d1b4dbfa2dbb89f2fa",
          "transactionIndex": "0x0",
          "logIndex": "0x0",
          "removed": false
        },
        {
          "address": "0xdd95a735134e18c2cc22e4e569b1af4ee68bd787",
          "topics": [
            "0xddf252ad1be2c89b69c2b068fc378daa952ba7f163c4a11628f55a4df523b3ef",
            "0x0000000000000000000000000000000000000000000000000000000000000000",
            "0x000000000000000000000000b18e4c959bccc8ef86d78dc297fb5efa99550d85",
            "0x05611ac011f4c8af2adf5f5b850fe4359224029d343b8627d112910fc1943e18"
          ],
          "data": "0x",
          "blockHash": "0xa3acc2d3fbbdd1903ccb216e48435591b03e02f1862befbbf180b551bed54a52",
          "blockNumber": "0x1a0910",
          "transactionHash": "0x4a2565466954e4c365ab747ace9127f5d5cb0f7c1d64d3d1b4dbfa2dbb89f2fa",
          "transactionIndex": "0x0",
          "logIndex": "0x1",
          "removed": false
        },
        {
          "address": "0xd3e89bb05f63337a450711156683d533db976c85",
          "topics": [
            "0xce0457fe73731f824cc272376169235128c118b49d344817417c6d108d155e82",
            "0x0df5f8a5325f09b015a3183b4d688404f7ca62454f4fcff7baaad9a490e3bd47",
            "0x05611ac011f4c8af2adf5f5b850fe4359224029d343b8627d112910fc1943e18"
          ],
          "data": "0x000000000000000000000000b18e4c959bccc8ef86d78dc297fb5efa99550d85",
          "blockHash": "0xa3acc2d3fbbdd1903ccb216e48435591b03e02f1862befbbf180b551bed54a52",
          "blockNumber": "0x1a0910",
          "transactionHash": "0x4a2565466954e4c365ab747ace9127f5d5cb0f7c1d64d3d1b4dbfa2dbb89f2fa",
          "transactionIndex": "0x0",
          "logIndex": "0x2",
          "removed": false
        },
        {
          "address": "0xd3e89bb05f63337a450711156683d533db976c85",
          "topics": [
            "0x335721b01866dc23fbee8b6b2c7b1e14d6f05c28cd35a2c934239f94095602a0",
            "0xc6160cc97b7a7183799c9e8f27fb97ab4c90372ed63d133938f1464a053420c1"
          ],
          "data": "0x000000000000000000000000537f40580bb46ad299f522d1cac2b7cb71be7892",
          "blockHash": "0xa3acc2d3fbbdd1903ccb216e48435591b03e02f1862befbbf180b551bed54a52",
          "blockNumber": "0x1a0910",
          "transactionHash": "0x4a2565466954e4c365ab747ace9127f5d5cb0f7c1d64d3d1b4dbfa2dbb89f2fa",
          "transactionIndex": "0x0",
          "logIndex": "0x3",
          "removed": false
        },
        {
          "address": "0xdd95a735134e18c2cc22e4e569b1af4ee68bd787",
          "topics": [
            "0xfd724d251af149ea2929b9061ddab2bb31e2d87778cc0acfa1d68add62e222e8",
            "0x05611ac011f4c8af2adf5f5b850fe4359224029d343b8627d112910fc1943e18",
            "0x000000000000000000000000b18e4c959bccc8ef86d78dc297fb5efa99550d85"
          ],
          "data": "0x0000000000000000000000000000000000000000000000000000000068fc9e6e000000000000000000000000537f40580bb46ad299f522d1cac2b7cb71be78920000000000000000000000000000000000000000000000000000000000000000",
          "blockHash": "0xa3acc2d3fbbdd1903ccb216e48435591b03e02f1862befbbf180b551bed54a52",
          "blockNumber": "0x1a0910",
          "transactionHash": "0x4a2565466954e4c365ab747ace9127f5d5cb0f7c1d64d3d1b4dbfa2dbb89f2fa",
          "transactionIndex": "0x0",
          "logIndex": "0x4",
          "removed": false
        },
        {
          "address": "0x537f40580bb46ad299f522d1cac2b7cb71be7892",
          "topics": [
            "0x65412581168e88a1e60c6459d7f44ae83ad0832e670826c05a4e2476b57af752",
            "0xc6160cc97b7a7183799c9e8f27fb97ab4c90372ed63d133938f1464a053420c1"
          ],
          "data": "0x000000000000000000000000000000000000000000000000000000000000003c00000000000000000000000000000000000000000000000000000000000000400000000000000000000000000000000000000000000000000000000000000014b18e4c959bccc8ef86d78dc297fb5efa99550d85000000000000000000000000",
          "blockHash": "0xa3acc2d3fbbdd1903ccb216e48435591b03e02f1862befbbf180b551bed54a52",
          "blockNumber": "0x1a0910",
          "transactionHash": "0x4a2565466954e4c365ab747ace9127f5d5cb0f7c1d64d3d1b4dbfa2dbb89f2fa",
          "transactionIndex": "0x0",
          "logIndex": "0x5",
          "removed": false
        },
        {
          "address": "0x537f40580bb46ad299f522d1cac2b7cb71be7892",
          "topics": [
            "0x52d7d861f09ab3d26239d492e8968629f95e9e318cf0b73bfddc441522a15fd2",
            "0xc6160cc97b7a7183799c9e8f27fb97ab4c90372ed63d133938f1464a053420c1"
          ],
          "data": "0x000000000000000000000000b18e4c959bccc8ef86d78dc297fb5efa99550d85",
          "blockHash": "0xa3acc2d3fbbdd1903ccb216e48435591b03e02f1862befbbf180b551bed54a52",
          "blockNumber": "0x1a0910",
          "transactionHash": "0x4a2565466954e4c365ab747ace9127f5d5cb0f7c1d64d3d1b4dbfa2dbb89f2fa",
          "transactionIndex": "0x0",
          "logIndex": "0x6",
          "removed": false
        },
        {
          "address": "0x537f40580bb46ad299f522d1cac2b7cb71be7892",
          "topics": [
            "0x448bc014f1536726cf8d54ff3d6481ed3cbc683c2591ca204274009afa09b1a1",
            "0xc6160cc97b7a7183799c9e8f27fb97ab4c90372ed63d133938f1464a053420c1",
            "0x62e13624df7b7b9f7047f38778ac4edf3d238dedb540fdbe5b8528dc0b757fa0"
          ],
          "data": "0x000000000000000000000000000000000000000000000000000000000000004000000000000000000000000000000000000000000000000000000000000000800000000000000000000000000000000000000000000000000000000000000007616d69636f6f6c0000000000000000000000000000000000000000000000000000000000000000000000000000000000000000000000000000000000000000037965730000000000000000000000000000000000000000000000000000000000",
          "blockHash": "0xa3acc2d3fbbdd1903ccb216e48435591b03e02f1862befbbf180b551bed54a52",
          "blockNumber": "0x1a0910",
          "transactionHash": "0x4a2565466954e4c365ab747ace9127f5d5cb0f7c1d64d3d1b4dbfa2dbb89f2fa",
          "transactionIndex": "0x0",
          "logIndex": "0x7",
          "removed": false
        },
        {
          "address": "0x50d634e43f5ad7748cf2860760b887655524b593",
          "topics": [
            "0x0667086d08417333ce63f40d5bc2ef6fd330e25aaaf317b7c489541f8fe600fa",
            "0x05611ac011f4c8af2adf5f5b850fe4359224029d343b8627d112910fc1943e18",
            "0x000000000000000000000000b18e4c959bccc8ef86d78dc297fb5efa99550d85"
          ],
          "data": "0x00000000000000000000000000000000000000000000000000000000000000400000000000000000000000000000000000000000000000000000000068fc9e6e00000000000000000000000000000000000000000000000000000000000000057374657665000000000000000000000000000000000000000000000000000000",
          "blockHash": "0xa3acc2d3fbbdd1903ccb216e48435591b03e02f1862befbbf180b551bed54a52",
          "blockNumber": "0x1a0910",
          "transactionHash": "0x4a2565466954e4c365ab747ace9127f5d5cb0f7c1d64d3d1b4dbfa2dbb89f2fa",
          "transactionIndex": "0x0",
          "logIndex": "0x8",
          "removed": false
        }
      ],
      "logsBloom": "0x00000040210000000008000000000100000002000000000000000040100000000000000000000000000000000000100000000000000010000000000000020000801006000000000040040008000000000000800004000000000000080000000000000000021000040000000000000801000000100000000000000010080000000000000000000004000000008000020000000000000000000010000000000000000000000002000028000200040000000004000000000000800040a4000000000000000240000000000000000000c000400000001000000000441000000020000000020000000000000000400004000000000000000000000080020000080000",
      "type": "0x2",
      "transactionHash": "0x4a2565466954e4c365ab747ace9127f5d5cb0f7c1d64d3d1b4dbfa2dbb89f2fa",
      "transactionIndex": "0x0",
      "blockHash": "0xa3acc2d3fbbdd1903ccb216e48435591b03e02f1862befbbf180b551bed54a52",
      "blockNumber": "0x1a0910",
      "gasUsed": "0x3ef04",
      "effectiveGasPrice": "0x118b677081",
      "from": "0x6be02d1d3665660d22ff9624b7be0551ee1ac91b",
      "to": "0x50d634e43f5ad7748cf2860760b887655524b593",
      "contractAddress": null
    }
  ],
  "libraries": [],
  "pending": [],
  "returns": {},
  "timestamp": 1729850100,
  "chain": 701,
  "commit": "82b3c23"
}