{
  "transactions": [
    {
      "hash": "0xc4d62044c7de261c6bb77201d45827b079b0a9c6be6fec7f541ab6c1cbaec621",
      "transactionType": "CALL",
      "contractName": null,
      "contractAddress": "0xfa39bfe0f589aba7315090bdaebdf617535b130f",
      "function": "register((string,address,uint256,address,bytes[],bool))",
      "arguments": [
        "(steve, 0xB18e4C959bccc8EF86D78DC297fb5efA99550d85, 31536000, 0xBF1fdCb2A1CAf1CA5662222417f0351043EEc19A, [0xd5fa2b00c6160cc97b7a7183799c9e8f27fb97ab4c90372ed63d133938f1464a053420c1000000000000000000000000b18e4c959bccc8ef86d78dc297fb5efa99550d85, 0x10f13a8cc6160cc97b7a7183799c9e8f27fb97ab4c90372ed63d133938f1464a053420c1000000000000000000000000000000000000000000000000000000000000006000000000000000000000000000000000000000000000000000000000000000a00000000000000000000000000000000000000000000000000000000000000007616d69636f6f6c0000000000000000000000000000000000000000000000000000000000000000000000000000000000000000000000000000000000000000037965730000000000000000000000000000000000000000000000000000000000], false)"
      ],
      "transaction": {
        "from": "0x6be02d1d3665660d22ff9624b7be0551ee1ac91b",
        "to": "0xfa39bfe0f589aba7315090bdaebdf617535b130f",
        "gas": "0x552ab",
        "value": "0x38caa5763a100",
        "input": "0xc7c79676000000000000000000000000000000000000000000000000000000000000002000000000000000000000000000000000000000000000000000000000000000c0000000000000000000000000b18e4c959bccc8ef86d78dc297fb5efa99550d850000000000000000000000000000000000000000000000000000000001e13380000000000000000000000000bf1fdcb2a1caf1ca5662222417f0351043eec19a00000000000000000000000000000000000000000000000000000000000001000000000000000000000000000000000000000000000000000000000000000000000000000000000000000000000000000000000000000000000000000000000573746576650000000000000000000000000000000000000000000000000000000000000000000000000000000000000000000000000000000000000000000002000000000000000000000000000000000000000000000000000000000000004000000000000000000000000000000000000000000000000000000000000000c00000000000000000000000000000000000000000000000000000000000000044d5fa2b00c6160cc97b7a7183799c9e8f27fb97ab4c90372ed63d133938f1464a053420c1000000000000000000000000b18e4c959bccc8ef86d78dc297fb5efa99550d850000000000000000000000000000000000000000000000000000000000000000000000000000000000000000000000000000000000000000000000e410f13a8cc6160cc97b7a7183799c9e8f27fb97ab4c90372ed63d133938f1464a053420c1000000000000000000000000000000000000000000000000000000000000006000000000000000000000000000000000000000000000000000000000000000a00000000000000000000000000000000000000000000000000000000000000007616d69636f6f6c000000000000000000000000000000000000000000000000000000000000000000000000000000000000000000000000000000000000000003796573000000000000000000000000000000000000000000000000000000000000000000000000000000000000000000000000000000000000000000",
        "nonce": "0x1d",
        "chainId": "0x2bd"
      },
      "additionalContracts": [],
      "isFixedGasLimit": false
    }
  ],
  "receipts": [
    {
      "status": "0x1",
      "cumulativeGasUsed": "0x3ef04",
      "logs": [
        {
          "address": "0xfa39bfe0f589aba7315090bdaebdf617535b130f",
          "topics": [
            "0xbc769889246686134856b409155bb87630ea5797a705fa98b61f576d316aab9b",
            "0x0000000000000000000000006be02d1d3665660d22ff9624b7be0551ee1ac91b"
          ],
          "data": "0x00000000000000000000000000000000000000000000000000038caa5763a100",
          "blockHash": "0x324d5a86c8a2578a2c3ef8f349091bfdc96fe92484948cfe6c18e812649d9ca9",
          "blockNumber": "0x19d0b3",
          "transactionHash": "0xc4d62044c7de261c6bb77201d45827b079b0a9c6be6fec7f541ab6c1cbaec621",
          "transactionIndex": "0x0",
          "logIndex": "0x0",
          "removed": false
        },
        {
          "address": "0xc683516e791c5e2b8e913de0670d499927f54cec",
          "topics": [
            "0xddf252ad1be2c89b69c2b068fc378daa952ba7f163c4a11628f55a4df523b3ef",
            "0x0000000000000000000000000000000000000000000000000000000000000000",
            "0x000000000000000000000000b18e4c959bccc8ef86d78dc297fb5efa99550d85",
            "0x05611ac011f4c8af2adf5f5b850fe4359224029d343b8627d112910fc1943e18"
          ],
          "data": "0x",
          "blockHash": "0x324d5a86c8a2578a2c3ef8f349091bfdc96fe92484948cfe6c18e812649d9ca9",
          "blockNumber": "0x19d0b3",
          "transactionHash": "0xc4d62044c7de261c6bb77201d45827b079b0a9c6be6fec7f541ab6c1cbaec621",
          "transactionIndex": "0x0",
          "logIndex": "0x1",
          "removed": false
        },
        {
          "address": "0xc7430d8919b54f85a723810fbcef2114482ec5d1",
          "topics": [
            "0xce0457fe73731f824cc272376169235128c118b49d344817417c6d108d155e82",
            "0x0df5f8a5325f09b015a3183b4d688404f7ca62454f4fcff7baaad9a490e3bd47",
            "0x05611ac011f4c8af2adf5f5b850fe4359224029d343b8627d112910fc1943e18"
          ],
          "data": "0x000000000000000000000000b18e4c959bccc8ef86d78dc297fb5efa99550d85",
          "blockHash": "0x324d5a86c8a2578a2c3ef8f349091bfdc96fe92484948cfe6c18e812649d9ca9",
          "blockNumber": "0x19d0b3",
          "transactionHash": "0xc4d62044c7de261c6bb77201d45827b079b0a9c6be6fec7f541ab6c1cbaec621",
          "transactionIndex": "0x0",
          "logIndex": "0x2",
          "removed": false
        },
        {
          "address": "0xc7430d8919b54f85a723810fbcef2114482ec5d1",
          "topics": [
            "0x335721b01866dc23fbee8b6b2c7b1e14d6f05c28cd35a2c934239f94095602a0",
            "0xc6160cc97b7a7183799c9e8f27fb97ab4c90372ed63d133938f1464a053420c1"
          ],
          "data": "0x000000000000000000000000bf1fdcb2a1caf1ca5662222417f0351043eec19a",
          "blockHash": "0x324d5a86c8a2578a2c3ef8f349091bfdc96fe92484948cfe6c18e812649d9ca9",
          "blockNumber": "0x19d0b3",
          "transactionHash": "0xc4d62044c7de261c6bb77201d45827b079b0a9c6be6fec7f541ab6c1cbaec621",
          "transactionIndex": "0x0",
          "logIndex": "0x3",
          "removed": false
        },
        {
          "address": "0xc683516e791c5e2b8e913de0670d499927f54cec",
          "topics": [
            "0xfd724d251af149ea2929b9061ddab2bb31e2d87778cc0acfa1d68add62e222e8",
            "0x05611ac011f4c8af2adf5f5b850fe4359224029d343b8627d112910fc1943e18",
            "0x000000000000000000000000b18e4c959bccc8ef86d78dc297fb5efa99550d85"
          ],
          "data": "0x0000000000000000000000000000000000000000000000000000000068fb4298000000000000000000000000bf1fdcb2a1caf1ca5662222417f0351043eec19a0000000000000000000000000000000000000000000000000000000000000000",
          "blockHash": "0x324d5a86c8a2578a2c3ef8f349091bfdc96fe92484948cfe6c18e812649d9ca9",
          "blockNumber": "0x19d0b3",
          "transactionHash": "0xc4d62044c7de261c6bb77201d45827b079b0a9c6be6fec7f541ab6c1cbaec621",
          "transactionIndex": "0x0",
          "logIndex": "0x4",
          "removed": false
        },
        {
          "address": "0xbf1fdcb2a1caf1ca5662222417f0351043eec19a",
          "topics": [
            "0x65412581168e88a1e60c6459d7f44ae83ad0832e670826c05a4e2476b57af752",
            "0xc6160cc97b7a7183799c9e8f27fb97ab4c90372ed63d133938f1464a053420c1"
          ],
          "data": "0x000000000000000000000000000000000000000000000000000000000000003c00000000000000000000000000000000000000000000000000000000000000400000000000000000000000000000000000000000000000000000000000000014b18e4c959bccc8ef86d78dc297fb5efa99550d85000000000000000000000000",
          "blockHash": "0x324d5a86c8a2578a2c3ef8f349091bfdc96fe92484948cfe6c18e812649d9ca9",
          "blockNumber": "0x19d0b3",
          "transactionHash": "0xc4d62044c7de261c6bb77201d45827b079b0a9c6be6fec7f541ab6c1cbaec621",
          "transactionIndex": "0x0",
          "logIndex": "0x5",
          "removed": false
        },
        {
          "address": "0xbf1fdcb2a1caf1ca5662222417f0351043eec19a",
          "topics": [
            "0x52d7d861f09ab3d26239d492e8968629f95e9e318cf0b73bfddc441522a15fd2",
            "0xc6160cc97b7a7183799c9e8f27fb97ab4c90372ed63d133938f1464a053420c1"
          ],
          "data": "0x000000000000000000000000b18e4c959bccc8ef86d78dc297fb5efa99550d85",
          "blockHash": "0x324d5a86c8a2578a2c3ef8f349091bfdc96fe92484948cfe6c18e812649d9ca9",
          "blockNumber": "0x19d0b3",
          "transactionHash": "0xc4d62044c7de261c6bb77201d45827b079b0a9c6be6fec7f541ab6c1cbaec621",
          "transactionIndex": "0x0",
          "logIndex": "0x6",
          "removed": false
        },
        {
          "address": "0xbf1fdcb2a1caf1ca5662222417f0351043eec19a",
          "topics": [
            "0x448bc014f1536726cf8d54ff3d6481ed3cbc683c2591ca204274009afa09b1a1",
            "0xc6160cc97b7a7183799c9e8f27fb97ab4c90372ed63d133938f1464a053420c1",
            "0x62e13624df7b7b9f7047f38778ac4edf3d238dedb540fdbe5b8528dc0b757fa0"
          ],
          "data": "0x000000000000000000000000000000000000000000000000000000000000004000000000000000000000000000000000000000000000000000000000000000800000000000000000000000000000000000000000000000000000000000000007616d69636f6f6c0000000000000000000000000000000000000000000000000000000000000000000000000000000000000000000000000000000000000000037965730000000000000000000000000000000000000000000000000000000000",
          "blockHash": "0x324d5a86c8a2578a2c3ef8f349091bfdc96fe92484948cfe6c18e812649d9ca9",
          "blockNumber": "0x19d0b3",
          "transactionHash": "0xc4d62044c7de261c6bb77201d45827b079b0a9c6be6fec7f541ab6c1cbaec621",
          "transactionIndex": "0x0",
          "logIndex": "0x7",
          "removed": false
        },
        {
          "address": "0xfa39bfe0f589aba7315090bdaebdf617535b130f",
          "topics": [
            "0x0667086d08417333ce63f40d5bc2ef6fd330e25aaaf317b7c489541f8fe600fa",
            "0x05611ac011f4c8af2adf5f5b850fe4359224029d343b8627d112910fc1943e18",
            "0x000000000000000000000000b18e4c959bccc8ef86d78dc297fb5efa99550d85"
          ],
          "data": "0x00000000000000000000000000000000000000000000000000000000000000400000000000000000000000000000000000000000000000000000000068fb429800000000000000000000000000000000000000000000000000000000000000057374657665000000000000000000000000000000000000000000000000000000",
          "blockHash": "0x324d5a86c8a2578a2c3ef8f349091bfdc96fe92484948cfe6c18e812649d9ca9",
          "blockNumber": "0x19d0b3",
          "transactionHash": "0xc4d62044c7de261c6bb77201d45827b079b0a9c6be6fec7f541ab6c1cbaec621",
          "transactionIndex": "0x0",
          "logIndex": "0x8",
          "removed": false
        }
      ],
      "logsBloom": "0x000000402000000040000000000001000000020000000000000000401000000000000000000000000000100000001000000000000000100000000000000200000010060000000000400000080000000000008000040000000000000002000000000000004200000400000000200008010000000000000000000000100800000000000000000000040000000c0000020000000000000000000010000000000000000000000002000028000200040000000004000000000000800040840000000000000002400000000000800000004000400000001040000000401000000020000000000000000002000000400004000000010000000000000080020000080800",
      "type": "0x2",
      "transactionHash": "0xc4d62044c7de261c6bb77201d45827b079b0a9c6be6fec7f541ab6c1cbaec621",
      "transactionIndex": "0x0",
      "blockHash": "0x324d5a86c8a2578a2c3ef8f349091bfdc96fe92484948cfe6c18e812649d9ca9",
      "blockNumber": "0x19d0b3",
      "gasUsed": "0x3ef04",
      "effectiveGasPrice": "0x118b677081",
      "from": "0x6be02d1d3665660d22ff9624b7be0551ee1ac91b",
      "to": "0xfa39bfe0f589aba7315090bdaebdf617535b130f",
      "contractAddress": null
    }
  ],
  "libraries": [],
  "pending": [],
  "returns": {},
  "timestamp": 1729761054,
  "chain": 701,
  "commit": "4b1eb45"
}