{
  "transactions": [
    {
      "hash": "0x8bb60a3daa7ce1a752d52686876919beec9983f944feb2dd37d47ac950994c79",
      "transactionType": "CALL",
      "contractName": "BaseRegistrar",
      "contractAddress": "0xdd95a735134e18c2cc22e4e569b1af4ee68bd787",
      "function": "addController(address)",
      "arguments": [
        "0x50d634E43F5aD7748cf2860760b887655524B593"
      ],
      "transaction": {
        "from": "0x6be02d1d3665660d22ff9624b7be0551ee1ac91b",
        "to": "0xdd95a735134e18c2cc22e4e569b1af4ee68bd787",
        "gas": "0xff6e",
        "value": "0x0",
        "input": "0xa7fc7a0700000000000000000000000050d634e43f5ad7748cf2860760b887655524b593",
        "nonce": "0x42",
        "chainId": "0x2bd"
      },
      "additionalContracts": [],
      "isFixedGasLimit": false
    },
    {
      "hash": "0x1815948c46409b8c3e14aa425df0519ff0e85f9e189b89f022aecd7df3e7a284",
      "transactionType": "CALL",
      "contractName": null,
      "contractAddress": "0x315f0c8877881c880d0675e84d915d23e0538502",
      "function": "setControllerApproval(address,bool)",
      "arguments": [
        "0x50d634E43F5aD7748cf2860760b887655524B593",
        "true"
      ],
      "transaction": {
        "from": "0x6be02d1d3665660d22ff9624b7be0551ee1ac91b",
        "to": "0x315f0c8877881c880d0675e84d915d23e0538502",
        "gas": "0x10232",
        "value": "0x0",
        "input": "0x0f6bdf4100000000000000000000000050d634e43f5ad7748cf2860760b887655524b5930000000000000000000000000000000000000000000000000000000000000001",
        "nonce": "0x43",
        "chainId": "0x2bd"
      },
      "additionalContracts": [],
      "isFixedGasLimit": false
    }
  ],
  "receipts": [
    {
      "status": "0x1",
      "cumulativeGasUsed": "0xdadc",
      "logs": [
        {
          "address": "0xdd95a735134e18c2cc22e4e569b1af4ee68bd787",
          "topics": [
            "0x0a8bb31534c0ed46f380cb867bd5c803a189ced9a764e30b3a4991a9901d7474",
            "0x00000000000000000000000050d634e43f5ad7748cf2860760b887655524b593"
          ],
          "data": "0x",
          "blockHash": "0xdecde6c203e640bb53afe7dc323552d2c9aa11b8b24ae015b31d0de3704c8929",
          "blockNumber": "0x1a08a5",
          "transactionHash": "0x8bb60a3daa7ce1a752d52686876919beec9983f944feb2dd37d47ac950994c79",
          "transactionIndex": "0x0",
          "logIndex": "0x0",
          "removed": false
        }
      ],
      "logsBloom": "0x00000000000000000000000000000000000000000400000000000000000000000000040000000000000000000000000000000000000000000000000000000010000000000000000000000000000000000400000000000000000000080000000000000000000000000000000000000000008000100000000000000000000000000000000000000000000100008000000000000000000000000000000000000000000000000000000000000000000000000000000000000000000000000000000000000000000000000000000000000000000000000000000000000000000000000000000000000000000000000000000000000000000000000000000000000000",
      "type": "0x2",
      "transactionHash": "0x8bb60a3daa7ce1a752d52686876919beec9983f944feb2dd37d47ac950994c79",
      "transactionIndex": "0x0",
      "blockHash": "0xdecde6c203e640bb53afe7dc323552d2c9aa11b8b24ae015b31d0de3704c8929",
      "blockNumber": "0x1a08a5",
      "gasUsed": "0xdadc",
      "effectiveGasPrice": "0x118b677081",
      "from": "0x6be02d1d3665660d22ff9624b7be0551ee1ac91b",
      "to": "0xdd95a735134e18c2cc22e4e569b1af4ee68bd787",
      "contractAddress": null
    },
    {
      "status": "0x1",
      "cumulativeGasUsed": "0x195cb",
      "logs": [
        {
          "address": "0x315f0c8877881c880d0675e84d915d23e0538502",
          "topics": [
            "0xf9029b781a69f4a546fcd723a108cc36592b8fbdecf665d7db4275c9d1de4892",
            "0x00000000000000000000000050d634e43f5ad7748cf2860760b887655524b593"
          ],
          "data": "0x0000000000000000000000000000000000000000000000000000000000000001",
          "blockHash": "0xdecde6c203e640bb53afe7dc323552d2c9aa11b8b24ae015b31d0de3704c8929",
          "blockNumber": "0x1a08a5",
          "transactionHash": "0x1815948c46409b8c3e14aa425df0519ff0e85f9e189b89f022aecd7df3e7a284",
          "transactionIndex": "0x1",
          "logIndex": "0x1",
          "removed": false
        }
      ],
      "logsBloom": "0x00000000000000000000000000000000000001000000000000000000000000000000040000000000000000000000000000000000000000000000000000000020000000000000000000080000000000000400000000000000000000000000000000000000000000000000000000000000000000000000000000000000000000000000000000000000000100000000001000000000000000000000000000000000000000000000000000000000000000000000000000000000000000000000000000000000000000000000000000800000000000000000000000000000400000000000000000000000000000000000000000000000000000000000000000000000",
      "type": "0x2",
      "transactionHash": "0x1815948c46409b8c3e14aa425df0519ff0e85f9e189b89f022aecd7df3e7a284",
      "transactionIndex": "0x1",
      "blockHash": "0xdecde6c203e640bb53afe7dc323552d2c9aa11b8b24ae015b31d0de3704c8929",
      "blockNumber": "0x1a08a5",
      "gasUsed": "0xbaef",
      "effectiveGasPrice": "0x118b677081",
      "from": "0x6be02d1d3665660d22ff9624b7be0551ee1ac91b",
      "to": "0x315f0c8877881c880d0675e84d915d23e0538502",
      "contractAddress": null
    }
  ],
  "libraries": [],
  "pending": [],
  "returns": {},
  "timestamp": 1729849451,
  "chain": 701,
  "commit": "e6e46f7"
}