{
  "transactions": [
    {
      "hash": "0xc14a326266bf21e9a05786f39e67026d0c6c762647305bfd2de59a9e26fd1c20",
      "transactionType": "CALL",
      "contractName": null,
      "contractAddress": "0xc683516e791c5e2b8e913de0670d499927f54cec",
      "function": "addController(address)",
      "arguments": [
        "0xFa39bFe0f589aba7315090bDaEbDF617535B130f"
      ],
      "transaction": {
        "from": "0x6be02d1d3665660d22ff9624b7be0551ee1ac91b",
        "to": "0xc683516e791c5e2b8e913de0670d499927f54cec",
        "gas": "0xff6e",
        "value": "0x0",
        "input": "0xa7fc7a07000000000000000000000000fa39bfe0f589aba7315090bdaebdf617535b130f",
        "nonce": "0x1b",
        "chainId": "0x2bd"
      },
      "additionalContracts": [],
      "isFixedGasLimit": false
    },
    {
      "hash": "0x9ca860e076cbc49b80a62d901507c61c81f153856815aafbef93217f16120fd0",
      "transactionType": "CALL",
      "contractName": null,
      "contractAddress": "0x1bc238ead60bdf5e94bb8f7205b6e75acabacbc0",
      "function": "setControllerApproval(address,bool)",
      "arguments": [
        "0xFa39bFe0f589aba7315090bDaEbDF617535B130f",
        "true"
      ],
      "transaction": {
        "from": "0x6be02d1d3665660d22ff9624b7be0551ee1ac91b",
        "to": "0x1bc238ead60bdf5e94bb8f7205b6e75acabacbc0",
        "gas": "0x10232",
        "value": "0x0",
        "input": "0x0f6bdf41000000000000000000000000fa39bfe0f589aba7315090bdaebdf617535b130f0000000000000000000000000000000000000000000000000000000000000001",
        "nonce": "0x1c",
        "chainId": "0x2bd"
      },
      "additionalContracts": [],
      "isFixedGasLimit": false
    }
  ],
  "receipts": [
    {
      "status": "0x1",
      "cumulativeGasUsed": "0xdadc",
      "logs": [
        {
          "address": "0xc683516e791c5e2b8e913de0670d499927f54cec",
          "topics": [
            "0x0a8bb31534c0ed46f380cb867bd5c803a189ced9a764e30b3a4991a9901d7474",
            "0x000000000000000000000000fa39bfe0f589aba7315090bdaebdf617535b130f"
          ],
          "data": "0x",
          "blockHash": "0xf0e638d6fc782cec206972370f8e990cf373c340b1f82fed3475a46ff3a871d0",
          "blockNumber": "0x19d0ac",
          "transactionHash": "0xc14a326266bf21e9a05786f39e67026d0c6c762647305bfd2de59a9e26fd1c20",
          "transactionIndex": "0x0",
          "logIndex": "0x0",
          "removed": false
        }
      ],
      "logsBloom": "0x00000000000000004000000000000000000000000400000000000000000000000000000000000000000000000000000000000000000000000000000000000010000000000000000000000000000000000000000000000000000000000000000000080000000000000000000000000000008000000000000000000000000000000000000000000000000000000080000000000000000000000000000000000000000000000000000000000000000000000000000000000000000000000000000000000000000000000000000000000000000000000000000000000000000000001000000000000000000000000000000000010000000000000000000000000800",
      "type": "0x2",
      "transactionHash": "0xc14a326266bf21e9a05786f39e67026d0c6c762647305bfd2de59a9e26fd1c20",
      "transactionIndex": "0x0",
      "blockHash": "0xf0e638d6fc782cec206972370f8e990cf373c340b1f82fed3475a46ff3a871d0",
      "blockNumber": "0x19d0ac",
      "gasUsed": "0xdadc",
      "effectiveGasPrice": "0x118b677081",
      "from": "0x6be02d1d3665660d22ff9624b7be0551ee1ac91b",
      "to": "0xc683516e791c5e2b8e913de0670d499927f54cec",
      "contractAddress": null
    },
    {
      "status": "0x1",
      "cumulativeGasUsed": "0x195cb",
      "logs": [
        {
          "address": "0x1bc238ead60bdf5e94bb8f7205b6e75acabacbc0",
          "topics": [
            "0xf9029b781a69f4a546fcd723a108cc36592b8fbdecf665d7db4275c9d1de4892",
            "0x000000000000000000000000fa39bfe0f589aba7315090bdaebdf617535b130f"
          ],
          "data": "0x0000000000000000000000000000000000000000000000000000000000000001",
          "blockHash": "0xf0e638d6fc782cec206972370f8e990cf373c340b1f82fed3475a46ff3a871d0",
          "blockNumber": "0x19d0ac",
          "transactionHash": "0x9ca860e076cbc49b80a62d901507c61c81f153856815aafbef93217f16120fd0",
          "transactionIndex": "0x1",
          "logIndex": "0x1",
          "removed": false
        }
      ],
      "logsBloom": "0x00000000000000000000000000000000040000000000000000000000000000000000000000000000000000000000000000000000000000000000000000000000000000000800000000080000000000000000000000000000000000000000000000080000000000000000000000000000000000000000000000000000000000000000000000000000000000000080001000000000000000000000000000000000000000000000000000000000000000000000000000000000000000000000000000000000000000000000000000800000000000000000000800000000000000001000000000000000000000000000000000000000000000000000000000000000",
      "type": "0x2",
      "transactionHash": "0x9ca860e076cbc49b80a62d901507c61c81f153856815aafbef93217f16120fd0",
      "transactionIndex": "0x1",
      "blockHash": "0xf0e638d6fc782cec206972370f8e990cf373c340b1f82fed3475a46ff3a871d0",
      "blockNumber": "0x19d0ac",
      "gasUsed": "0xbaef",
      "effectiveGasPrice": "0x118b677081",
      "from": "0x6be02d1d3665660d22ff9624b7be0551ee1ac91b",
      "to": "0x1bc238ead60bdf5e94bb8f7205b6e75acabacbc0",
      "contractAddress": null
    }
  ],
  "libraries": [],
  "pending": [],
  "returns": {},
  "timestamp": 1729761006,
  "chain": 701,
  "commit": "4b1eb45"
}